:020000040800F2
:104400000050002041C7000881C5000887C500088A
:104410008DC5000893C5000899C50008000000007C
:104420000000000000000000000000009FC5000820
:10443000ABC5000800000000B7C50008C3C50008F0
:1044400089C7000889C7000889C7000889C700080C
:1044500089C7000889C7000889C7000889C70008FC
:1044600089C7000889C7000889C7000889C70008EC
:1044700089C7000889C7000889C7000889C70008DC
:1044800089C7000889C7000889C7000889C70008CC
:1044900089C7000889C7000889C7000889C70008BC
:1044A00089C7000889C7000889C7000889C70008AC
:1044B00089C7000889C7000889C7000889C700089C
:1044C00089C7000889C7000889C7000889C700088C
:1044D00089C70008D1C5000889C7000889C7000836
:1044E00089C7000889C7000889C7000800000000C4
:1044F00000000000000000000000000000000000BC
:0C45000000000000000000005FF808F15F
:10450C0010B5054C237833B9044B13B10448AFF301
:10451C0000800123237010BD6C00002000000000FF
:10452C0044F2000808B5034B1BB103490348AFF331
:10453C00008008BD000000007000002044F200085C
:10454C0080B500AF08F01CF907F068FE07F000FF1B
:10455C0007F0AAFE07F0D2FEE04B1B781946DF4BA2
:10456C005B781A46DE4809F0EBFF4FF40051DD484A
:10457C0008F0E8FC642008F065F94FF40051D948C4
:10458C0008F0E0FCC82008F05DF94FF40051D54864
:10459C0008F0D8FC4FF4FA7008F054F94FF40051BD
:1045AC00D04808F0CFFCC82008F04CF94FF400516B
:1045BC00CC4808F0C7FC642008F044F94FF40051D3
:1045CC00C84808F0BFFCC82008F03CF94FF4005173
:1045DC00C44808F0B7FC4FF4FA7008F033F94FF404
:1045EC000051C04808F0AEFCC82008F02BF94FF47D
:1045FC000051BC4808F0A6FC642008F023F94FF4E5
:10460C000051B84808F09EFCC82008F01BF94FF484
:10461C000051B44808F096FC4FF4FA7008F012F907
:10462C004FF40051AF4808F08DFCC82008F00AF98F
:10463C004FF40051AB4808F085FC642008F002F9F7
:10464C004FF40051A74808F07DFCC82008F0FAF898
:10465C004FF40051A34808F075FC4FF4FA7008F0C1
:10466C00F1F84FF400519F4808F06CFCC82008F09A
:10467C00E9F84FF400519B4808F064FC642008F002
:10468C00E1F84FF40051974808F05CFCC82008F0A2
:10469C00D9F84FF40051934808F054FC4FF4FA70D9
:1046AC0008F0D0F84FF400518E4808F04BFCC820AD
:1046BC0008F0C8F84FF400518A4808F043FC642015
:1046CC0008F0C0F84FF40051864808F03BFCC820B5
:1046DC0008F0B8F84FF40051824808F033FC4FF45E
:1046EC00FA7008F0AFF84FF400517E4808F02AFC3D
:1046FC00C82008F0A7F84FF400517A4808F022FCC3
:10470C00642008F09FF84FF40051764808F01AFC2A
:10471C00C82008F097F84FF40051724808F012FCCA
:10472C004FF4FA7008F08EF84FF400516D4808F011
:10473C0009FCC82008F086F84FF40051694808F0CD
:10474C0001FC642008F07EF84FF40051654808F035
:10475C00F9FBC82008F076F84FF40051614808F0D6
:10476C00F1FB4FF4FA7008F06DF84FF400515D480E
:10477C0008F0E8FBC82008F065F84FF400515948E0
:10478C0008F0E0FB642008F05DF84FF40051554848
:10479C0008F0D8FBC82008F055F84FF400515148E8
:1047AC0008F0D0FB4FF4FA7008F04CF84FF40051BD
:1047BC004C4808F0C7FBC82008F044F84FF40051EF
:1047CC00484808F0BFFB642008F03CF84FF4005157
:1047DC00444808F0B7FBC82008F034F84FF40051F7
:1047EC00404808F0AFFB4FF4FA7008F02BF84FF488
:1047FC0000513C4808F0A6FBC82008F023F84FF401
:10480C000051384808F09EFB642008F01BF84FF468
:10481C000051344808F096FBC82008F013F84FF408
:10482C000051304808F08EFB4FF4FA7008F00AF88B
:10483C004FF400512B4808F085FBC82008F002F813
:10484C004FF40051274808F07DFB642007F0FAFF75
:10485C004FF40051234808F075FBC82007F0F2FF15
:10486C004FF400511F4808F06DFB4FF4FA7007F03D
:10487C00E9FF4FF400511B4808F064FBC82007F017
:10488C00E1FF4FF40051174808F05CFB642007F07F
:10489C00D9FF4FF40051134808F054FBC82007F01F
:1048AC00D1FF4FF400510F4808F04CFB4FF4FA7055
:1048BC0007F0C8FF4FF400510A4808F043FBC8202A
:1048CC0007F0C0FF4FF40051064808F03BFB642092
:1048DC0007F0B8FF4FF4005106E000BF00000020C5
:1048EC005CF2000800100140E24808F02BFBC820E5
:1048FC0007F0A8FF4FF40051DE4808F023FB4FF4FB
:10490C00FA7007F09FFF4FF40051DA4808F01AFBD9
:10491C00C82007F097FF4FF40051D64808F012FB5F
:10492C00642007F08FFF4FF40051D24808F00AFBC7
:10493C00C82007F087FF4FF40051CE4808F002FB67
:10494C004FF4FA7007F07EFF4FF40051C94808F09D
:10495C00F9FAC82007F076FF4FF40051C54808F06B
:10496C00F1FA642007F06EFF4FF40051C14808F0D3
:10497C00E9FAC82007F066FF4FF40051BD4808F073
:10498C00E1FA4FF4FA7007F05DFF4FF40051B948AB
:10499C0008F0D8FAC82007F055FF4FF40051B5487D
:1049AC0008F0D0FA642007F04DFF4FF40051B148E5
:1049BC0008F0C8FAC82007F045FF4FF40051AD4885
:1049CC0008F0C0FA4FF4FA7007F03CFF4FF40051B6
:1049DC00A84808F0B7FAC82007F034FF4FF400518C
:1049EC00A44808F0AFFA642007F02CFF4FF40051F4
:1049FC00A04808F0A7FAC82007F024FF4FF4005194
:104A0C009C4808F09FFA4FF4FA7007F01BFF4FF424
:104A1C000051984808F096FAC82007F013FF4FF49D
:104A2C000051944808F08EFA642007F00BFF4FF405
:104A3C000051904808F086FAC82007F003FF4FF4A5
:104A4C0000518C4808F07EFA4FF4FA7007F0FAFE29
:104A5C004FF40051874808F075FAC82007F0F2FEB1
:104A6C004FF40051834808F06DFA642007F0EAFE19
:104A7C004FF400517F4808F065FAC82007F0E2FEB9
:104A8C004FF400517B4808F05DFA4FF4FA7007F0D0
:104A9C00D9FE4FF40051774808F054FAC82007F0BB
:104AAC00D1FE4FF40051734808F04CFA642007F023
:104ABC00C9FE4FF400516F4808F044FAC82007F0C3
:104ACC00C1FE4FF400516B4808F03CFA4FF4FA70F9
:104ADC0007F0B8FE4FF40051664808F033FAC820CE
:104AEC0007F0B0FE4FF40051624808F02BFA642036
:104AFC0007F0A8FE4FF400515E4808F023FAC820D6
:104B0C0007F0A0FE4FF400515A4808F01BFA4FF47E
:104B1C00FA7007F097FE4FF40051564808F012FA5D
:104B2C00C82007F08FFE4FF40051524808F00AFAE3
:104B3C00642007F087FE4FF400514E4808F002FA4B
:104B4C00C82007F07FFE4FF400514A4808F0FAF9EC
:104B5C004FF4FA7007F076FE4FF40051454808F018
:104B6C00F1F9C82007F06EFE4FF40051414808F0EF
:104B7C00E9F9642007F066FE4FF400513D4808F057
:104B8C00E1F9C82007F05EFE4FF40051394808F0F7
:104B9C00D9F94FF4FA7007F055FE4FF4005135482F
:104BAC0008F0D0F9C82007F04DFE4FF40051314801
:104BBC0008F0C8F9642007F045FE4FF400512D4869
:104BCC0008F0C0F9C82007F03DFE4FF40051294809
:104BDC0008F0B8F94FF4FA7007F034FE4FF40051B6
:104BEC00244808F0AFF9C82007F02CFE4FF4005110
:104BFC00204808F0A7F9642007F024FE4FF4005178
:104C0C001C4808F09FF9C82007F01CFE4FF4005117
:104C1C00184808F097F94FF4FA7007F013FE4FF4A8
:104C2C000051144808F08EF9C82007F00BFE4FF421
:104C3C000051104808F086F9642007F003FE4FF489
:104C4C0000510C4808F07EF9C82007F0FBFD4FF42A
:104C5C000051084808F076F94FF4FA7007F0F2FDAD
:104C6C004FF40051034808F06DF9C82007F0EAFD35
:104C7C0002E000BF001001404FF40051E24808F080
:104C8C0061F9642007F0DEFD4FF40051DE4808F0B6
:104C9C0059F9C82007F0D6FD4FF40051DA4808F056
:104CAC0051F94FF4FA7007F0CDFD4FF40051D6488E
:104CBC0008F048F9C82007F0C5FD4FF40051D24860
:104CCC0008F040F9642007F0BDFD4FF40051CE48C8
:104CDC0008F038F9C82007F0B5FD4FF40051CA4868
:104CEC0008F030F94FF4FA7007F0ACFD4FF40051B6
:104CFC00C54808F027F9C82007F0A4FD4FF400516F
:104D0C00C14808F01FF9642007F09CFD4FF40051D6
:104D1C00BD4808F017F9C82007F094FD4FF4005176
:104D2C00B94808F00FF94FF4FA7007F08BFD4FF407
:104D3C000051B54808F006F9C82007F083FD4FF480
:104D4C000051B14808F0FEF8642007F07BFD4FF4E9
:104D5C000051AD4808F0F6F8C82007F073FD4FF489
:104D6C000051A94808F0EEF84FF4FA7007F06AFD0C
:104D7C004FF40051A44808F0E5F8C82007F062FD94
:104D8C004FF40051A04808F0DDF8642007F05AFDFC
:104D9C004FF400519C4808F0D5F8C82007F052FD9C
:104DAC004FF40051984808F0CDF84FF4FA7007F022
:104DBC0049FD4FF40051944808F0C4F8C82007F09E
:104DCC0041FD4FF40051904808F0BCF8642007F006
:104DDC0039FD4FF400518C4808F0B4F8C82007F0A6
:104DEC0031FD4FF40051884808F0ACF84FF4FA70DC
:104DFC0007F028FD4FF40051834808F0A3F8C820B1
:104E0C0007F020FD4FF400517F4808F09BF8642018
:104E1C0007F018FD4FF400517B4808F093F8C820B8
:104E2C0007F010FD4FF40051774808F08BF84FF461
:104E3C00FA7007F007FD4FF40051734808F082F840
:104E4C00C82007F0FFFC4FF400516F4808F07AF8C7
:104E5C00642007F0F7FC4FF400516B4808F072F82F
:104E6C00C82007F0EFFC4FF40051674808F06AF8CF
:104E7C004FF4FA7007F0E6FC4FF40051624808F06A
:104E8C0061F8C82007F0DEFC4FF400515E4808F0D2
:104E9C0059F8642007F0D6FC4FF400515A4808F03A
:104EAC0051F8C82007F0CEFC4FF40051564808F0DA
:104EBC0049F84FF4FA7007F0C5FC4FF40051524812
:104ECC0008F040F8C82007F0BDFC4FF400514E48E4
:104EDC0008F038F8642007F0B5FC4FF400514A484C
:104EEC0008F030F8C82007F0ADFC4FF400514648EC
:104EFC0008F028F84FF4FA7007F0A4FC4FF40051B6
:104F0C00414808F01FF8C82007F09CFC4FF40051F2
:104F1C003D4808F017F8642007F094FC4FF400515A
:104F2C00394808F00FF8C82007F08CFC4FF40051FA
:104F3C00354808F007F84FF4FA7007F083FC4FF48B
:104F4C000051314807F0FEFFC82007F07BFC4FF4FE
:104F5C0000512D4807F0F6FF642007F073FC4FF466
:104F6C000051294807F0EEFFC82007F06BFC4FF406
:104F7C000051254807F0E6FF4FF4FA7007F062FC89
:104F8C004FF40051204807F0DDFFC82007F05AFC11
:104F9C004FF400511C4807F0D5FF642007F052FC79
:104FAC004FF40051184807F0CDFFC82007F04AFC19
:104FBC004FF40051144807F0C5FF4FF4FA7007F096
:104FCC0041FC4FF40051104807F0BCFFC82007F01B
:104FDC0039FC4FF400510C4807F0B4FF642007F083
:104FEC0031FC4FF40051084807F0ACFFC82007F023
:104FFC0029FC4FF40051044807F0A4FF4FF4FA7059
:10500C0007F020FC02E000BF001001404FF40051FB
:10501C00E24807F097FFC82007F014FC4FF400514A
:10502C00DE4807F08FFF642007F00CFC4FF40051B2
:10503C00DA4807F087FFC82007F004FC4FF4005152
:10504C00D64807F07FFF4FF4FA7007F0FBFB4FF4E4
:10505C000051D24807F076FFC82007F0F3FB4FF45D
:10506C000051CE4807F06EFF642007F0EBFB4FF4C5
:10507C000051CA4807F066FFC82007F0E3FB4FF465
:10508C000051C64807F05EFF4FF4FA7007F0DAFBE8
:10509C004FF40051C14807F055FFC82007F0D2FB70
:1050AC004FF40051BD4807F04DFF642007F0CAFBD8
:1050BC004FF40051B94807F045FFC82007F0C2FB78
:1050CC004FF40051B54807F03DFF4FF4FA7007F06C
:1050DC00B9FB4FF40051B14807F034FFC82007F07A
:1050EC00B1FB4FF40051AD4807F02CFF642007F0E2
:1050FC00A9FB4FF40051A94807F024FFC82007F082
:10510C00A1FB4FF40051A54807F01CFF4FF4FA70B7
:10511C0007F098FB4FF40051A04807F013FFC8208C
:10512C0007F090FB4FF400519C4807F00BFF6420F4
:10513C0007F088FB4FF40051984807F003FFC82094
:10514C0007F080FB4FF40051944807F0FBFE4FF43E
:10515C00FA7007F077FB4FF40051904807F0F2FE1D
:10516C00C82007F06FFB4FF400518C4807F0EAFEA3
:10517C00642007F067FB4FF40051884807F0E2FE0B
:10518C00C82007F05FFB4FF40051844807F0DAFEAB
:10519C004FF4FA7007F056FB4FF400517F4807F0BC
:1051AC00D1FEC82007F04EFB4FF400517B4807F0AE
:1051BC00C9FE642007F046FB4FF40051774807F016
:1051CC00C1FEC82007F03EFB4FF40051734807F0B6
:1051DC00B9FE4FF4FA7007F035FB4FF400516F48ED
:1051EC0007F0B0FEC82007F02DFB4FF400516B48C0
:1051FC0007F0A8FE642007F025FB4FF40051674828
:10520C0007F0A0FEC82007F01DFB4FF400516348C7
:10521C0007F098FE4FF4FA7007F014FB4FF40051AE
:10522C005E4807F08FFEC82007F00CFB4FF40051CE
:10523C005A4807F087FE642007F004FB4FF4005136
:10524C00564807F07FFEC82007F0FCFA4FF40051D7
:10525C00524807F077FE4FF4FA7007F0F3FA4FF468
:10526C0000514E4807F06EFEC82007F0EBFA4FF4E1
:10527C0000514A4807F066FE642007F0E3FA4FF449
:10528C000051464807F05EFEC82007F0DBFA4FF4E9
:10529C000051424807F056FE4FF4FA7007F0D2FA6C
:1052AC004FF400513D4807F04DFEC82007F0CAFAF4
:1052BC004FF40051394807F045FE642007F0C2FA5C
:1052CC004FF40051354807F03DFEC82007F0BAFAFC
:1052DC004FF40051314807F035FE4FF4FA7007F0E7
:1052EC00B1FA4FF400512D4807F02CFEC82007F0FE
:1052FC00A9FA4FF40051294807F024FE642007F066
:10530C00A1FA4FF40051254807F01CFEC82007F005
:10531C0099FA4FF40051214807F014FE4FF4FA703B
:10532C0007F090FA4FF400511C4807F00BFEC82010
:10533C0007F088FA4FF40051184807F003FE642078
:10534C0007F080FA4FF40051144807F0FBFDC82019
:10535C0007F078FA4FF40051104807F0F3FD4FF4C2
:10536C00FA7007F06FFA4FF400510C4807F0EAFDA1
:10537C00C82007F067FA4FF40051084807F0E2FD27
:10538C00642007F05FFA4FF40051044807F0DAFD8F
:10539C00C82007F057FA4FF4005101E0001001400B
:1053AC00E24807F0CFFD4FF4FA7007F04BFA4FF4D8
:1053BC000051DE4807F0C6FDC82007F043FA4FF451
:1053CC000051DA4807F0BEFD642007F03BFA4FF4B9
:1053DC000051D64807F0B6FDC82007F033FA4FF459
:1053EC000051D24807F0AEFD4FF4FA7007F02AFADC
:1053FC004FF40051CD4807F0A5FDC82007F022FA64
:10540C004FF40051C94807F09DFD642007F01AFACB
:10541C004FF40051C54807F095FDC82007F012FA6B
:10542C004FF40051C14807F08DFD4FF4FA7007F0AE
:10543C0009FA4FF40051BD4807F084FDC82007F06D
:10544C0001FA4FF40051B94807F07CFD642007F0D5
:10545C00F9F94FF40051B54807F074FDC82007F076
:10546C00F1F94FF40051B14807F06CFD4FF4FA70AC
:10547C0007F0E8F94FF40051AC4807F063FDC82081
:10548C0007F0E0F94FF40051A84807F05BFD6420E9
:10549C0007F0D8F94FF40051A44807F053FDC82089
:1054AC0007F0D0F94FF40051A04807F04BFD4FF432
:1054BC00FA7007F0C7F94FF400519C4807F042FD11
:1054CC00C82007F0BFF94FF40051984807F03AFD97
:1054DC00642007F0B7F94FF40051944807F032FDFF
:1054EC00C82007F0AFF94FF40051904807F02AFD9F
:1054FC004FF4FA7007F0A6F94FF400518B4807F0FF
:10550C0021FDC82007F09EF94FF40051874807F0A1
:10551C0019FD642007F096F94FF40051834807F009
:10552C0011FDC82007F08EF94FF400517F4807F0A9
:10553C0009FD4FF4FA7007F085F94FF400517B48E0
:10554C0007F000FDC82007F07DF94FF400517748B3
:10555C0007F0F8FC642007F075F94FF4005173481C
:10556C0007F0F0FCC82007F06DF94FF400516F48BC
:10557C0007F0E8FC4FF4FA7007F064F94FF40051AF
:10558C006A4807F0DFFCC82007F05CF94FF40051C3
:10559C00664807F0D7FC642007F054F94FF400512B
:1055AC00624807F0CFFCC82007F04CF94FF40051CB
:1055BC005E4807F0C7FC4FF4FA7007F043F94FF45C
:1055CC0000515A4807F0BEFCC82007F03BF94FF4D5
:1055DC000051564807F0B6FC642007F033F94FF43D
:1055EC000051524807F0AEFCC82007F02BF94FF4DD
:1055FC0000514E4807F0A6FC4FF4FA7007F022F960
:10560C004FF40051494807F09DFCC82007F01AF9E7
:10561C004FF40051454807F095FC642007F012F94F
:10562C004FF40051414807F08DFCC82007F00AF9EF
:10563C004FF400513D4807F085FC4FF4FA7007F029
:10564C0001F94FF40051394807F07CFCC82007F0F1
:10565C00F9F84FF40051354807F074FC642007F05A
:10566C00F1F84FF40051314807F06CFCC82007F0FA
:10567C00E9F84FF400512D4807F064FC4FF4FA7030
:10568C0007F0E0F84FF40051284807F05BFCC82005
:10569C0007F0D8F84FF40051244807F053FC64206D
:1056AC0007F0D0F84FF40051204807F04BFCC8200D
:1056BC0007F0C8F84FF400511C4807F043FC4FF4B6
:1056CC00FA7007F0BFF84FF40051184807F03AFC95
:1056DC00C82007F0B7F84FF40051144807F032FC1B
:1056EC00642007F0AFF84FF40051104807F02AFC83
:1056FC00C82007F0A7F84FF400510C4807F022FC23
:10570C004FF4FA7007F09EF84FF40051074807F079
:10571C0019FCC82007F096F84FF40051034807F025
:10572C0011FC642007F08EF802E000BF001001406D
:10573C004FF40051E24807F005FCC82007F082F84E
:10574C004FF40051DE4807F0FDFB4FF4FA7007F000
:10575C0079F84FF40051DA4807F0F4FBC82007F051
:10576C0071F84FF40051D64807F0ECFB642007F0B9
:10577C0069F84FF40051D24807F0E4FBC82007F059
:10578C0061F84FF40051CE4807F0DCFB4FF4FA708F
:10579C0007F058F84FF40051C94807F0D3FBC82064
:1057AC0007F050F84FF40051C54807F0CBFB6420CC
:1057BC0007F048F84FF40051C14807F0C3FBC8206C
:1057CC0007F040F84FF40051BD4807F0BBFB4FF415
:1057DC00FA7007F037F84FF40051B94807F0B2FBF4
:1057EC00C82007F02FF84FF40051B54807F0AAFB7A
:1057FC00642007F027F84FF40051B14807F0A2FBE2
:10580C00C82007F01FF84FF40051AD4807F09AFB81
:10581C004FF4FA7007F016F84FF40051A84807F04F
:10582C0091FBC82007F00EF84FF40051A44807F084
:10583C0089FB642007F006F84FF40051A04807F0EC
:10584C0081FBC82006F0FEFF4FF400519C4807F086
:10585C0079FB4FF4FA7006F0F5FF4FF400519848BD
:10586C0007F070FBC82006F0EDFF4FF40051944890
:10587C0007F068FB642006F0E5FF4FF400519048F8
:10588C0007F060FBC82006F0DDFF4FF400518C4898
:10589C0007F058FB4FF4FA7006F0D4FF4FF40051A8
:1058AC00874807F04FFBC82006F0CCFF4FF400519F
:1058BC00834807F047FB642006F0C4FF4FF4005107
:1058CC007F4807F03FFBC82006F0BCFF4FF40051A7
:1058DC007B4807F037FB4FF4FA7006F0B3FF4FF438
:1058EC000051774807F02EFBC82006F0ABFF4FF4B1
:1058FC000051734807F026FB642006F0A3FF4FF419
:10590C0000516F4807F01EFBC82006F09BFF4FF4B8
:10591C0000516B4807F016FB4FF4FA7006F092FF3B
:10592C004FF40051664807F00DFBC82006F08AFFC3
:10593C004FF40051624807F005FB642006F082FF2B
:10594C004FF400515E4807F0FDFAC82006F07AFFCC
:10595C004FF400515A4807F0F5FA4FF4FA7006F07C
:10596C0071FF4FF40051564807F0ECFAC82006F0CE
:10597C0069FF4FF40051524807F0E4FA642006F036
:10598C0061FF4FF400514E4807F0DCFAC82006F0D6
:10599C0059FF4FF400514A4807F0D4FA4FF4FA700B
:1059AC0006F050FF4FF40051454807F0CBFAC820E1
:1059BC0006F048FF4FF40051414807F0C3FA642049
:1059CC0006F040FF4FF400513D4807F0BBFAC820E9
:1059DC0006F038FF4FF40051394807F0B3FA4FF492
:1059EC00FA7006F02FFF4FF40051354807F0AAFA71
:1059FC00C82006F027FF4FF40051314807F0A2FAF7
:105A0C00642006F01FFF4FF400512D4807F09AFA5E
:105A1C00C82006F017FF4FF40051294807F092FAFE
:105A2C004FF4FA7006F00EFF4FF40051244807F0C3
:105A3C0089FAC82006F006FF4FF40051204807F001
:105A4C0081FA642006F0FEFE4FF400511C4807F06A
:105A5C0079FAC82006F0F6FE4FF40051184807F00A
:105A6C0071FA4FF4FA7006F0EDFE4FF40051144841
:105A7C0007F068FAC82006F0E5FE4FF40051104814
:105A8C0007F060FA642006F0DDFE4FF400510C487C
:105A9C0007F058FAC82006F0D5FE4FF4005108481C
:105AAC0007F050FA4FF4FA7006F0CCFE4FF40051A8
:105ABC00034807F047FAC82006F0C4FE02E000BF16
:105ACC00001001404FF40051E24807F03BFA64200B
:105ADC0006F0B8FE4FF40051DE4807F033FAC82048
:105AEC0006F0B0FE4FF40051DA4807F02BFA4FF4F1
:105AFC00FA7006F0A7FE4FF40051D64807F022FAD0
:105B0C00C82006F09FFE4FF40051D24807F01AFA55
:105B1C00642006F097FE4FF40051CE4807F012FABD
:105B2C00C82006F08FFE4FF40051CA4807F00AFA5D
:105B3C004FF4FA7006F086FE4FF40051C54807F09A
:105B4C0001FAC82006F07EFE4FF40051C14807F060
:105B5C00F9F9642006F076FE4FF40051BD4807F0C9
:105B6C00F1F9C82006F06EFE4FF40051B94807F069
:105B7C00E9F94FF4FA7006F065FE4FF40051B548A0
:105B8C0007F0E0F9C82006F05DFE4FF40051B14873
:105B9C0007F0D8F9642006F055FE4FF40051AD48DB
:105BAC0007F0D0F9C82006F04DFE4FF40051A9487B
:105BBC0007F0C8F94FF4FA7006F044FE4FF40051A8
:105BCC00A44807F0BFF9C82006F03CFE4FF4005182
:105BDC00A04807F0B7F9642006F034FE4FF40051EA
:105BEC009C4807F0AFF9C82006F02CFE4FF400518A
:105BFC00984807F0A7F94FF4FA7006F023FE4FF41B
:105C0C000051944807F09EF9C82006F01BFE4FF493
:105C1C000051904807F096F9642006F013FE4FF4FB
:105C2C0000518C4807F08EF9C82006F00BFE4FF49B
:105C3C000051884807F086F94FF4FA7006F002FE1E
:105C4C004FF40051834807F07DF9C82006F0FAFDA7
:105C5C004FF400517F4807F075F9642006F0F2FD0F
:105C6C004FF400517B4807F06DF9C82006F0EAFDAF
:105C7C004FF40051774807F065F94FF4FA7006F0CD
:105C8C00E1FD4FF40051734807F05CF9C82006F0B1
:105C9C00D9FD4FF400516F4807F054F9642006F019
:105CAC00D1FD4FF400516B4807F04CF9C82006F0B9
:105CBC00C9FD4FF40051674807F044F94FF4FA70EE
:105CCC0006F0C0FD4FF40051624807F03BF9C820C4
:105CDC0006F0B8FD4FF400515E4807F033F964202C
:105CEC0006F0B0FD4FF400515A4807F02BF9C820CC
:105CFC0006F0A8FD4FF40051564807F023F94FF475
:105D0C00FA7006F09FFD4FF40051524807F01AF953
:105D1C00C82006F097FD4FF400514E4807F012F9D9
:105D2C00642006F08FFD4FF400514A4807F00AF941
:105D3C00C82006F087FD4FF40051464807F002F9E1
:105D4C004FF4FA7006F07EFD4FF40051414807F015
:105D5C00F9F8C82006F076FD4FF400513D4807F0E5
:105D6C00F1F8642006F06EFD4FF40051394807F04D
:105D7C00E9F8C82006F066FD4FF40051354807F0ED
:105D8C00E1F84FF4FA7006F05DFD4FF40051314824
:105D9C0007F0D8F8C82006F055FD4FF400512D48F7
:105DAC0007F0D0F8642006F04DFD4FF4005129485F
:105DBC0007F0C8F8C82006F045FD4FF400512548FF
:105DCC0007F0C0F84FF4FA7006F03CFD4FF40051A8
:105DDC00204807F0B7F8C82006F034FD4FF4005106
:105DEC001C4807F0AFF8642006F02CFD4FF400516E
:105DFC00184807F0A7F8C82006F024FD4FF400510E
:105E0C00144807F09FF84FF4FA7006F01BFD4FF49E
:105E1C000051104807F096F8C82006F013FD4FF417
:105E2C0000510C4807F08EF8642006F00BFD4FF47F
:105E3C000051084807F086F8C82006F003FD4FF41F
:105E4C000051044807F07EF84FF4FA7006F0FAFCA3
:105E5C0002E000BF001001404FF40051E24807F08F
:105E6C0071F8C82006F0EEFC4FF40051DE4807F044
:105E7C0069F8642006F0E6FC4FF40051DA4807F0AC
:105E8C0061F8C82006F0DEFC4FF40051D64807F04C
:105E9C0059F84FF4FA7006F0D5FC4FF40051D24883
:105EAC0007F050F8C82006F0CDFC4FF40051CE4856
:105EBC0007F048F8642006F0C5FC4FF40051CA48BE
:105ECC0007F040F8C82006F0BDFC4FF40051C6485E
:105EDC0007F038F84FF4FA7006F0B4FC4FF40051A8
:105EEC00C14807F02FF8C82006F0ACFC4FF4005165
:105EFC00BD4807F027F8642006F0A4FC4FF40051CD
:105F0C00B94807F01FF8C82006F09CFC4FF400516C
:105F1C00B54807F017F84FF4FA7006F093FC4FF4FD
:105F2C000051B14807F00EF8C82006F08BFC4FF476
:105F3C000051AD4807F006F8642006F083FC4FF4DE
:105F4C000051A94806F0FEFFC82006F07BFC4FF478
:105F5C000051A54806F0F6FF4FF4FA7006F072FCFB
:105F6C004FF40051A04806F0EDFFC82006F06AFC83
:105F7C004FF400519C4806F0E5FF642006F062FCEB
:105F8C004FF40051984806F0DDFFC82006F05AFC8B
:105F9C004FF40051944806F0D5FF4FF4FA7006F018
:105FAC0051FC4FF40051904806F0CCFFC82006F08D
:105FBC0049FC4FF400518C4806F0C4FF642006F0F5
:105FCC0041FC4FF40051884806F0BCFFC82006F095
:105FDC0039FC4FF40051844806F0B4FF4FF4FA70CA
:105FEC0006F030FC4FF400517F4806F0ABFFC820A0
:105FFC0006F028FC4FF400517B4806F0A3FF642008
:10600C0006F020FC4FF40051774806F09BFFC820A7
:10601C0006F018FC4FF40051734806F093FF4FF450
:10602C00FA7006F00FFC4FF400516F4806F08AFF2F
:10603C00C82006F007FC4FF400516B4806F082FFB5
:10604C00642006F0FFFB4FF40051674806F07AFF1E
:10605C00C82006F0F7FB4FF40051634806F072FFBE
:10606C004FF4FA7006F0EEFB4FF400515E4806F068
:10607C0069FFC82006F0E6FB4FF400515A4806F0C1
:10608C0061FF642006F0DEFB4FF40051564806F029
:10609C0059FFC82006F0D6FB4FF40051524806F0C9
:1060AC0051FF4FF4FA7006F0CDFB4FF400514E48FF
:1060BC0006F048FFC82006F0C5FB4FF400514A48D3
:1060CC0006F040FF642006F0BDFB4FF4005146483B
:1060DC0006F038FFC82006F0B5FB4FF400514248DB
:1060EC0006F030FF4FF4FA7006F0ACFB4FF40051A1
:1060FC003D4806F027FFC82006F0A4FB4FF40051E2
:10610C00394806F01FFF642006F09CFB4FF4005149
:10611C00354806F017FFC82006F094FB4FF40051E9
:10612C00314806F00FFF4FF4FA7006F08BFB4FF47A
:10613C0000512D4806F006FFC82006F083FB4FF4F3
:10614C000051294806F0FEFE642006F07BFB4FF45C
:10615C000051254806F0F6FEC82006F073FB4FF4FC
:10616C000051214806F0EEFE4FF4FA7006F06AFB7F
:10617C004FF400511C4806F0E5FEC82006F062FB07
:10618C004FF40051184806F0DDFE642006F05AFB6F
:10619C004FF40051144806F0D5FEC82006F052FB0F
:1061AC004FF40051104806F0CDFE4FF4FA7006F093
:1061BC0049FB4FF400510C4806F0C4FEC82006F011
:1061CC0041FB4FF40051084806F0BCFE642006F079
:1061DC0039FB4FF40051044806F0B4FEC82006F019
:1061EC0031FB4FF4005101E000100140E24806F091
:1061FC00A9FE4FF4FA7006F025FB4FF40051DE486F
:10620C0006F0A0FEC82006F01DFB4FF40051DA4842
:10621C0006F098FE642006F015FB4FF40051D648AA
:10622C0006F090FEC82006F00DFB4FF40051D2484A
:10623C0006F088FE4FF4FA7006F004FB4FF40051A0
:10624C00CD4806F07FFEC82006F0FCFA4FF4005152
:10625C00C94806F077FE642006F0F4FA4FF40051BA
:10626C00C54806F06FFEC82006F0ECFA4FF400515A
:10627C00C14806F067FE4FF4FA7006F0E3FA4FF4EB
:10628C000051BD4806F05EFEC82006F0DBFA4FF464
:10629C000051B94806F056FE642006F0D3FA4FF4CC
:1062AC000051B54806F04EFEC82006F0CBFA4FF46C
:1062BC000051B14806F046FE4FF4FA7006F0C2FAEF
:1062CC004FF40051AC4806F03DFEC82006F0BAFA77
:1062DC004FF40051A84806F035FE642006F0B2FADF
:1062EC004FF40051A44806F02DFEC82006F0AAFA7F
:1062FC004FF40051A04806F025FE4FF4FA7006F05A
:10630C00A1FA4FF400519C4806F01CFEC82006F080
:10631C0099FA4FF40051984806F014FE642006F0E8
:10632C0091FA4FF40051944806F00CFEC82006F088
:10633C0089FA4FF40051904806F004FE4FF4FA70BD
:10634C0006F080FA4FF400518B4806F0FBFDC82094
:10635C0006F078FA4FF40051874806F0F3FD6420FC
:10636C0006F070FA4FF40051834806F0EBFDC8209C
:10637C0006F068FA4FF400517F4806F0E3FD4FF445
:10638C00FA7006F05FFA4FF400517B4806F0DAFD24
:10639C00C82006F057FA4FF40051774806F0D2FDAA
:1063AC00642006F04FFA4FF40051734806F0CAFD12
:1063BC00C82006F047FA4FF400516F4806F0C2FDB2
:1063CC004FF4FA7006F03EFA4FF400516A4806F0AA
:1063DC00B9FDC82006F036FA4FF40051664806F0B5
:1063EC00B1FD642006F02EFA4FF40051624806F01D
:1063FC00A9FDC82006F026FA4FF400515E4806F0BD
:10640C00A1FD4FF4FA7006F01DFA4FF400515A48F2
:10641C0006F098FDC82006F015FA4FF400515648C6
:10642C0006F090FD642006F00DFA4FF4005152482E
:10643C0006F088FDC82006F005FA4FF400514E48CE
:10644C0006F080FD4FF4FA7006F0FCF94FF40051A1
:10645C00494806F077FDC82006F0F4F94FF40051D6
:10646C00454806F06FFD642006F0ECF94FF400513E
:10647C00414806F067FDC82006F0E4F94FF40051DE
:10648C003D4806F05FFD4FF4FA7006F0DBF94FF46F
:10649C000051394806F056FDC82006F0D3F94FF4E8
:1064AC000051354806F04EFD642006F0CBF94FF450
:1064BC000051314806F046FDC82006F0C3F94FF4F0
:1064CC0000512D4806F03EFD4FF4FA7006F0BAF973
:1064DC004FF40051284806F035FDC82006F0B2F9FB
:1064EC004FF40051244806F02DFD642006F0AAF963
:1064FC004FF40051204806F025FDC82006F0A2F903
:10650C004FF400511C4806F01DFD4FF4FA7006F0D4
:10651C0099F94FF40051184806F014FDC82006F004
:10652C0091F94FF40051144806F00CFD642006F06C
:10653C0089F94FF40051104806F004FDC82006F00C
:10654C0081F94FF400510C4806F0FCFC4FF4FA7042
:10655C0006F078F94FF40051074806F0F3FCC82018
:10656C0006F070F94FF40051034806F0EBFC642080
:10657C0006F068F902E000BF001001404FF4005132
:10658C00E24806F0DFFCC82006F05CF94FF400513D
:10659C00DE4806F0D7FC4FF4FA7006F053F94FF4CE
:1065AC000051DA4806F0CEFCC82006F04BF94FF447
:1065BC000051D64806F0C6FC642006F043F94FF4AF
:1065CC000051D24806F0BEFCC82006F03BF94FF44F
:1065DC000051CE4806F0B6FC4FF4FA7006F032F9D2
:1065EC004FF40051C94806F0ADFCC82006F02AF95A
:1065FC004FF40051C54806F0A5FC642006F022F9C2
:10660C004FF40051C14806F09DFCC82006F01AF961
:10661C004FF40051BD4806F095FC4FF4FA7006F0AB
:10662C0011F94FF40051B94806F08CFCC82006F063
:10663C0009F94FF40051B54806F084FC642006F0CB
:10664C0001F94FF40051B14806F07CFCC82006F06B
:10665C00F9F84FF40051AD4806F074FC4FF4FA70A1
:10666C0006F0F0F84FF40051A84806F06BFCC82077
:10667C0006F0E8F84FF40051A44806F063FC6420DF
:10668C0006F0E0F84FF40051A04806F05BFCC8207F
:10669C0006F0D8F84FF400519C4806F053FC4FF428
:1066AC00FA7006F0CFF84FF40051984806F04AFC07
:1066BC00C82006F0C7F84FF40051944806F042FC8D
:1066CC00642006F0BFF84FF40051904806F03AFCF5
:1066DC00C82006F0B7F84FF400518C4806F032FC95
:1066EC004FF4FA7006F0AEF84FF40051874806F0FC
:1066FC0029FCC82006F0A6F84FF40051834806F098
:10670C0021FC642006F09EF84FF400517F4806F0FF
:10671C0019FCC82006F096F84FF400517B4806F09F
:10672C0011FC4FF4FA7006F08DF84FF400517748D5
:10673C0006F008FCC82006F085F84FF400517348A9
:10674C0006F000FC642006F07DF84FF400516F4811
:10675C0006F0F8FBC82006F075F84FF400516B48B2
:10676C0006F0F0FB4FF4FA7006F06CF84FF40051A1
:10677C00664806F0E7FBC82006F064F84FF40051B9
:10678C00624806F0DFFB642006F05CF84FF4005121
:10679C005E4806F0D7FBC82006F054F84FF40051C1
:1067AC005A4806F0CFFB4FF4FA7006F04BF84FF452
:1067BC000051564806F0C6FBC82006F043F84FF4CB
:1067CC000051524806F0BEFB642006F03BF84FF433
:1067DC0000514E4806F0B6FBC82006F033F84FF4D3
:1067EC0000514A4806F0AEFB4FF4FA7006F02AF856
:1067FC004FF40051454806F0A5FBC82006F022F8DE
:10680C004FF40051414806F09DFB642006F01AF845
:10681C004FF400513D4806F095FBC82006F012F8E5
:10682C004FF40051394806F08DFB4FF4FA7006F026
:10683C0009F84FF40051354806F084FBC82006F0E7
:10684C0001F84FF40051314806F07CFB642005F050
:10685C00F9FF4FF400512D4806F074FBC82005F0E9
:10686C00F1FF4FF40051294806F06CFB4FF4FA701D
:10687C0005F0E8FF4FF40051244806F063FBC820F4
:10688C0005F0E0FF4FF40051204806F05BFB64205C
:10689C0005F0D8FF4FF400511C4806F053FBC820FC
:1068AC0005F0D0FF4FF40051184806F04BFB4FF4A5
:1068BC00FA7005F0C7FF4FF40051144806F042FB84
:1068CC00C82005F0BFFF4FF40051104806F03AFB0A
:1068DC00642005F0B7FF4FF400510C4806F032FB72
:1068EC00C82005F0AFFF4FF40051084806F02AFB12
:1068FC004FF4FA7005F0A6FF4FF40051034806F070
:10690C0021FBC82005F09EFF02E000BF00100140F3
:10691C004FF40051E24806F015FB642005F092FF9D
:10692C004FF40051DE4806F00DFBC82005F08AFF3D
:10693C004FF40051DA4806F005FB4FF4FA7005F0FD
:10694C0081FF4FF40051D64806F0FCFAC82005F040
:10695C0079FF4FF40051D24806F0F4FA642005F0A8
:10696C0071FF4FF40051CE4806F0ECFAC82005F048
:10697C0069FF4FF40051CA4806F0E4FA4FF4FA707C
:10698C0005F060FF4FF40051C54806F0DBFAC82053
:10699C0005F058FF4FF40051C14806F0D3FA6420BB
:1069AC0005F050FF4FF40051BD4806F0CBFAC8205B
:1069BC0005F048FF4FF40051B94806F0C3FA4FF404
:1069CC00FA7005F03FFF4FF40051B54806F0BAFAE3
:1069DC00C82005F037FF4FF40051B14806F0B2FA69
:1069EC00642005F02FFF4FF40051AD4806F0AAFAD1
:1069FC00C82005F027FF4FF40051A94806F0A2FA71
:106A0C004FF4FA7005F01EFF4FF40051A44806F045
:106A1C0099FAC82005F016FF4FF40051A04806F073
:106A2C0091FA642005F00EFF4FF400519C4806F0DB
:106A3C0089FAC82005F006FF4FF40051984806F07B
:106A4C0081FA4FF4FA7005F0FDFE4FF400519448B2
:106A5C0006F078FAC82005F0F5FE4FF40051904886
:106A6C0006F070FA642005F0EDFE4FF400518C48EE
:106A7C0006F068FAC82005F0E5FE4FF4005188488E
:106A8C0006F060FA4FF4FA7005F0DCFE4FF400519A
:106A9C00834806F057FAC82005F0D4FE4FF4005195
:106AAC007F4806F04FFA642005F0CCFE4FF40051FD
:106ABC007B4806F047FAC82005F0C4FE4FF400519D
:106ACC00774806F03FFA4FF4FA7005F0BBFE4FF42E
:106ADC000051734806F036FAC82005F0B3FE4FF4A7
:106AEC0000516F4806F02EFA642005F0ABFE4FF40F
:106AFC0000516B4806F026FAC82005F0A3FE4FF4AF
:106B0C000051674806F01EFA4FF4FA7005F09AFE31
:106B1C004FF40051624806F015FAC82005F092FEB9
:106B2C004FF400515E4806F00DFA642005F08AFE21
:106B3C004FF400515A4806F005FAC82005F082FEC1
:106B4C004FF40051564806F0FDF94FF4FA7005F079
:106B5C0079FE4FF40051524806F0F4F9C82005F0C4
:106B6C0071FE4FF400514E4806F0ECF9642005F02C
:106B7C0069FE4FF400514A4806F0E4F9C82005F0CC
:106B8C0061FE4FF40051464806F0DCF94FF4FA7000
:106B9C0005F058FE4FF40051414806F0D3F9C820D7
:106BAC0005F050FE4FF400513D4806F0CBF964203F
:106BBC0005F048FE4FF40051394806F0C3F9C820DF
:106BCC0005F040FE4FF40051354806F0BBF94FF488
:106BDC00FA7005F037FE4FF40051314806F0B2F967
:106BEC00C82005F02FFE4FF400512D4806F0AAF9ED
:106BFC00642005F027FE4FF40051294806F0A2F955
:106C0C00C82005F01FFE4FF40051254806F09AF9F4
:106C1C004FF4FA7005F016FE4FF40051204806F0C0
:106C2C0091F9C82005F00EFE4FF400511C4806F0F7
:106C3C0089F9642005F006FE4FF40051184806F05F
:106C4C0081F9C82005F0FEFD4FF40051144806F000
:106C5C0079F94FF4FA7005F0F5FD4FF40051104836
:106C6C0006F070F9C82005F0EDFD4FF400510C480A
:106C7C0006F068F9642005F0E5FD4FF40051084872
:106C8C0006F060F9C82005F0DDFD4FF40051044812
:106C9C0006F058F94FF4FA7005F0D4FD02E000BF8D
:106CAC00001001404FF40051E24806F04BF9C820A7
:106CBC0005F0C8FD4FF40051DE4806F043F964209E
:106CCC0005F0C0FD4FF40051DA4806F03BF9C8203E
:106CDC0005F0B8FD4FF40051D64806F033F94FF4E7
:106CEC00FA7005F0AFFD4FF40051D24806F02AF9C6
:106CFC00C82005F0A7FD4FF40051CE4806F022F94C
:106D0C00642005F09FFD4FF40051CA4806F01AF9B3
:106D1C00C82005F097FD4FF40051C64806F012F953
:106D2C004FF4FA7005F08EFD4FF40051C14806F097
:106D3C0009F9C82005F086FD4FF40051BD4806F056
:106D4C0001F9642005F07EFD4FF40051B94806F0BE
:106D5C00F9F8C82005F076FD4FF40051B54806F05F
:106D6C00F1F84FF4FA7005F06DFD4FF40051B14895
:106D7C0006F0E8F8C82005F065FD4FF40051AD4869
:106D8C0006F0E0F8642005F05DFD4FF40051A948D1
:106D9C0006F0D8F8C82005F055FD4FF40051A54871
:106DAC0006F0D0F84FF4FA7005F04CFD4FF400519A
:106DBC00A04806F0C7F8C82005F044FD4FF4005178
:106DCC009C4806F0BFF8642005F03CFD4FF40051E0
:106DDC00984806F0B7F8C82005F034FD4FF4005180
:106DEC00944806F0AFF84FF4FA7005F02BFD4FF411
:106DFC000051904806F0A6F8C82005F023FD4FF48A
:106E0C0000518C4806F09EF8642005F01BFD4FF4F1
:106E1C000051884806F096F8C82005F013FD4FF491
:106E2C000051844806F08EF84FF4FA7005F00AFD14
:106E3C004FF400517F4806F085F8C82005F002FD9C
:106E4C004FF400517B4806F07DF8642005F0FAFC05
:106E5C004FF40051774806F075F8C82005F0F2FCA5
:106E6C004FF40051734806F06DF84FF4FA7005F0CA
:106E7C00E9FC4FF400516F4806F064F8C82005F0A7
:106E8C00E1FC4FF400516B4806F05CF8642005F00F
:106E9C00D9FC4FF40051674806F054F8C82005F0AF
:106EAC00D1FC4FF40051634806F04CF84FF4FA70E3
:106EBC0005F0C8FC4FF400515E4806F043F8C820BA
:106ECC0005F0C0FC4FF400515A4806F03BF8642022
:106EDC0005F0B8FC4FF40051564806F033F8C820C2
:106EEC0005F0B0FC4FF40051524806F02BF84FF46B
:106EFC00FA7005F0A7FC4FF400514E4806F022F84A
:106F0C00C82005F09FFC4FF400514A4806F01AF8CF
:106F1C00642005F097FC4FF40051464806F012F837
:106F2C00C82005F08FFC4FF40051424806F00AF8D7
:106F3C004FF4FA7005F086FC4FF400513D4806F012
:106F4C0001F8C82005F07EFC4FF40051394805F0DB
:106F5C00F9FF642005F076FC4FF40051354805F03C
:106F6C00F1FFC82005F06EFC4FF40051314805F0DC
:106F7C00E9FF4FF4FA7005F065FC4FF400512D4811
:106F8C0005F0E0FFC82005F05DFC4FF400512948E6
:106F9C0005F0D8FF642005F055FC4FF4005125484E
:106FAC0005F0D0FFC82005F04DFC4FF400512148EE
:106FBC0005F0C8FF4FF4FA7005F044FC4FF4005193
:106FCC001C4805F0BFFFC82005F03CFC4FF40051F5
:106FDC00184805F0B7FF642005F034FC4FF400515D
:106FEC00144805F0AFFFC82005F02CFC4FF40051FD
:106FFC00104805F0A7FF4FF4FA7005F023FC4FF48E
:10700C0000510C4805F09EFFC82005F01BFC4FF406
:10701C000051084805F096FF642005F013FC4FF46E
:10702C000051044805F08EFFC82005F00BFC4FF40E
:10703C00005101E000100140E24805F083FF4FF4DD
:10704C00FA7005F0FFFB4FF40051DE4805F07AFFB3
:10705C00C82005F0F7FB4FF40051DA4805F072FF39
:10706C00642005F0EFFB4FF40051D64805F06AFFA1
:10707C00C82005F0E7FB4FF40051D24805F062FF41
:10708C004FF4FA7005F0DEFB4FF40051CD4805F0DB
:10709C0059FFC82005F0D6FB4FF40051C94805F044
:1070AC0051FF642005F0CEFB4FF40051C54805F0AC
:1070BC0049FFC82005F0C6FB4FF40051C14805F04C
:1070CC0041FF4FF4FA7005F0BDFB4FF40051BD4881
:1070DC0005F038FFC82005F0B5FB4FF40051B94856
:1070EC0005F030FF642005F0ADFB4FF40051B548BE
:1070FC0005F028FFC82005F0A5FB4FF40051B1485E
:10710C0005F020FF4FF4FA7005F09CFB4FF4005192
:10711C00AC4805F017FFC82005F094FB4FF4005164
:10712C00A84805F00FFF642005F08CFB4FF40051CC
:10713C00A44805F007FFC82005F084FB4FF400516C
:10714C00A04805F0FFFE4FF4FA7005F07BFB4FF4FE
:10715C0000519C4805F0F6FEC82005F073FB4FF477
:10716C000051984805F0EEFE642005F06BFB4FF4DF
:10717C000051944805F0E6FEC82005F063FB4FF47F
:10718C000051904805F0DEFE4FF4FA7005F05AFB02
:10719C004FF400518B4805F0D5FEC82005F052FB8A
:1071AC004FF40051874805F0CDFE642005F04AFBF2
:1071BC004FF40051834805F0C5FEC82005F042FB92
:1071CC004FF400517F4805F0BDFE4FF4FA7005F006
:1071DC0039FB4FF400517B4805F0B4FEC82005F094
:1071EC0031FB4FF40051774805F0ACFE642005F0FC
:1071FC0029FB4FF40051734805F0A4FEC82005F09C
:10720C0021FB4FF400516F4805F09CFE4FF4FA70CF
:10721C0005F018FB4FF400516A4805F093FEC820A6
:10722C0005F010FB4FF40051664805F08BFE64200E
:10723C0005F008FB4FF40051624805F083FEC820AE
:10724C0005F000FB4FF400515E4805F07BFE4FF457
:10725C00FA7005F0F7FA4FF400515A4805F072FE37
:10726C00C82005F0EFFA4FF40051564805F06AFEBD
:10727C00642005F0E7FA4FF40051524805F062FE25
:10728C00C82005F0DFFA4FF400514E4805F05AFEC5
:10729C004FF4FA7005F0D6FA4FF40051494805F056
:1072AC0051FEC82005F0CEFA4FF40051454805F0C8
:1072BC0049FE642005F0C6FA4FF40051414805F030
:1072CC0041FEC82005F0BEFA4FF400513D4805F0D0
:1072DC0039FE4FF4FA7005F0B5FA4FF40051394805
:1072EC0005F030FEC82005F0ADFA4FF400513548DA
:1072FC0005F028FE642005F0A5FA4FF40051314842
:10730C0005F020FEC82005F09DFA4FF400512D48E1
:10731C0005F018FE4FF4FA7005F094FA4FF4005192
:10732C00284805F00FFEC82005F08CFA4FF40051E8
:10733C00244805F007FE642005F084FA4FF4005150
:10734C00204805F0FFFDC82005F07CFA4FF40051F1
:10735C001C4805F0F7FD4FF4FA7005F073FA4FF482
:10736C000051184805F0EEFDC82005F06BFA4FF4FB
:10737C000051144805F0E6FD642005F063FA4FF463
:10738C000051104805F0DEFDC82005F05BFA4FF403
:10739C0000510C4805F0D6FD4FF4FA7005F052FA86
:1073AC004FF40051074805F0CDFDC82005F04AFA0E
:1073BC004FF40051034805F0C5FD642005F042FA76
:1073CC0002E000BF001001404FF40051E24805F00C
:1073DC00B9FDC82005F036FA4FF40051DE4805F02F
:1073EC00B1FD4FF4FA7005F02DFA4FF40051DA4864
:1073FC0005F0A8FDC82005F025FA4FF40051D64839
:10740C0005F0A0FD642005F01DFA4FF40051D248A0
:10741C0005F098FDC82005F015FA4FF40051CE4840
:10742C0005F090FD4FF4FA7005F00CFA4FF4005192
:10743C00C94805F087FDC82005F004FA4FF4005147
:10744C00C54805F07FFD642005F0FCF94FF40051B0
:10745C00C14805F077FDC82005F0F4F94FF4005150
:10746C00BD4805F06FFD4FF4FA7005F0EBF94FF4E1
:10747C000051B94805F066FDC82005F0E3F94FF45A
:10748C000051B54805F05EFD642005F0DBF94FF4C2
:10749C000051B14805F056FDC82005F0D3F94FF462
:1074AC000051AD4805F04EFD4FF4FA7005F0CAF9E5
:1074BC004FF40051A84805F045FDC82005F0C2F96D
:1074CC004FF40051A44805F03DFD642005F0BAF9D5
:1074DC004FF40051A04805F035FDC82005F0B2F975
:1074EC004FF400519C4805F02DFD4FF4FA7005F057
:1074FC00A9F94FF40051984805F024FDC82005F077
:10750C00A1F94FF40051944805F01CFD642005F0DE
:10751C0099F94FF40051904805F014FDC82005F07E
:10752C0091F94FF400518C4805F00CFD4FF4FA70B2
:10753C0005F088F94FF40051874805F003FDC82089
:10754C0005F080F94FF40051834805F0FBFC6420F2
:10755C0005F078F94FF400517F4805F0F3FCC82092
:10756C0005F070F94FF400517B4805F0EBFC4FF43B
:10757C00FA7005F067F94FF40051774805F0E2FC1A
:10758C00C82005F05FF94FF40051734805F0DAFCA0
:10759C00642005F057F94FF400516F4805F0D2FC08
:1075AC00C82005F04FF94FF400516B4805F0CAFCA8
:1075BC004FF4FA7005F046F94FF40051664805F0A7
:1075CC00C1FCC82005F03EF94FF40051624805F0AB
:1075DC00B9FC642005F036F94FF400515E4805F013
:1075EC00B1FCC82005F02EF94FF400515A4805F0B3
:1075FC00A9FC4FF4FA7005F025F94FF400515648E8
:10760C0005F0A0FCC82005F01DF94FF400515248BC
:10761C0005F098FC642005F015F94FF400514E4824
:10762C0005F090FCC82005F00DF94FF400514A48C4
:10763C0005F088FC4FF4FA7005F004F94FF4005192
:10764C00454805F07FFCC82005F0FCF84FF40051CC
:10765C00414805F077FC642005F0F4F84FF4005134
:10766C003D4805F06FFCC82005F0ECF84FF40051D4
:10767C00394805F067FC4FF4FA7005F0E3F84FF465
:10768C000051354805F05EFCC82005F0DBF84FF4DE
:10769C000051314805F056FC642005F0D3F84FF446
:1076AC0000512D4805F04EFCC82005F0CBF84FF4E6
:1076BC000051294805F046FC4FF4FA7005F0C2F869
:1076CC004FF40051244805F03DFCC82005F0BAF8F1
:1076DC004FF40051204805F035FC642005F0B2F859
:1076EC004FF400511C4805F02DFCC82005F0AAF8F9
:1076FC004FF40051184805F025FC4FF4FA7005F0D2
:10770C00A1F84FF40051144805F01CFCC82005F0FA
:10771C0099F84FF40051104805F014FC642005F062
:10772C0091F84FF400510C4805F00CFCC82005F002
:10773C0089F84FF40051084805F004FC4FF4FA7036
:10774C0005F080F84FF40051034805F0FBFBC8200E
:10775C0005F078F802E000BF001001404FF4005132
:10776C00E24805F0EFFB642005F06CF84FF4005193
:10777C00DE4805F0E7FBC82005F064F84FF4005133
:10778C00DA4805F0DFFB4FF4FA7005F05BF84FF4C4
:10779C000051D64805F0D6FBC82005F053F84FF43D
:1077AC000051D24805F0CEFB642005F04BF84FF4A5
:1077BC000051CE4805F0C6FBC82005F043F84FF445
:1077CC000051CA4805F0BEFB4FF4FA7005F03AF8C8
:1077DC004FF40051C54805F0B5FBC82005F032F850
:1077EC004FF40051C14805F0ADFB642005F02AF8B8
:1077FC004FF40051BD4805F0A5FBC82005F022F858
:10780C004FF40051B94805F09DFB4FF4FA7005F0A8
:10781C0019F84FF40051B54805F094FBC82005F059
:10782C0011F84FF40051B14805F08CFB642005F0C1
:10783C0009F84FF40051AD4805F084FBC82005F061
:10784C0001F84FF40051A94805F07CFB4FF4FA7095
:10785C0004F0F8FF4FF40051A44805F073FBC82066
:10786C0004F0F0FF4FF40051A04805F06BFB6420CE
:10787C0004F0E8FF4FF400519C4805F063FBC8206E
:10788C0004F0E0FF4FF40051984805F05BFB4FF417
:10789C00FA7004F0D7FF4FF40051944805F052FBF6
:1078AC00C82004F0CFFF4FF40051904805F04AFB7C
:1078BC00642004F0C7FF4FF400518C4805F042FBE4
:1078CC00C82004F0BFFF4FF40051884805F03AFB84
:1078DC004FF4FA7004F0B6FF4FF40051834805F0F2
:1078EC0031FBC82004F0AEFF4FF400517F4805F087
:1078FC0029FB642004F0A6FF4FF400517B4805F0EF
:10790C0021FBC82004F09EFF4FF40051774805F08E
:10791C0019FB4FF4FA7004F095FF4FF400517348C3
:10792C0005F010FBC82004F08DFF4FF400516F4898
:10793C0005F008FB642004F085FF4FF400516B4800
:10794C0005F000FBC82004F07DFF4FF400516748A0
:10795C0005F0F8FA4FF4FA7004F074FF4FF400518C
:10796C00624805F0EFFAC82004F06CFF4FF40051A8
:10797C005E4805F0E7FA642004F064FF4FF4005110
:10798C005A4805F0DFFAC82004F05CFF4FF40051B0
:10799C00564805F0D7FA4FF4FA7004F053FF4FF441
:1079AC000051524805F0CEFAC82004F04BFF4FF4BA
:1079BC0000514E4805F0C6FA642004F043FF4FF422
:1079CC0000514A4805F0BEFAC82004F03BFF4FF4C2
:1079DC000051464805F0B6FA4FF4FA7004F032FF45
:1079EC004FF40051414805F0ADFAC82004F02AFFCD
:1079FC004FF400513D4805F0A5FA642004F022FF35
:107A0C004FF40051394805F09DFAC82004F01AFFD4
:107A1C004FF40051354805F095FA4FF4FA7004F024
:107A2C0011FF4FF40051314805F08CFAC82004F0D6
:107A3C0009FF4FF400512D4805F084FA642004F03E
:107A4C0001FF4FF40051294805F07CFAC82004F0DE
:107A5C00F9FE4FF40051254805F074FA4FF4FA7012
:107A6C0004F0F0FE4FF40051204805F06BFAC820EA
:107A7C0004F0E8FE4FF400511C4805F063FA642052
:107A8C0004F0E0FE4FF40051184805F05BFAC820F2
:107A9C0004F0D8FE4FF40051144805F053FA4FF49B
:107AAC00FA7004F0CFFE4FF40051104805F04AFA7A
:107ABC00C82004F0C7FE4FF400510C4805F042FA00
:107ACC00642004F0BFFE4FF40051084805F03AFA68
:107ADC00C82004F0B7FE4FF40051044805F032FA08
:107AEC004FF4FA7004F0AEFE02E000BF001001404B
:107AFC004FF40051E24805F025FAC82004F0A2FE2C
:107B0C004FF40051DE4805F01DFA642004F09AFE93
:107B1C004FF40051DA4805F015FAC82004F092FE33
:107B2C004FF40051D64805F00DFA4FF4FA7004F0FA
:107B3C0089FE4FF40051D24805F004FAC82004F035
:107B4C0081FE4FF40051CE4805F0FCF9642004F09E
:107B5C0079FE4FF40051CA4805F0F4F9C82004F03E
:107B6C0071FE4FF40051C64805F0ECF94FF4FA7071
:107B7C0004F068FE4FF40051C14805F0E3F9C82049
:107B8C0004F060FE4FF40051BD4805F0DBF96420B1
:107B9C0004F058FE4FF40051B94805F0D3F9C82051
:107BAC0004F050FE4FF40051B54805F0CBF94FF4FA
:107BBC00FA7004F047FE4FF40051B14805F0C2F9D9
:107BCC00C82004F03FFE4FF40051AD4805F0BAF95F
:107BDC00642004F037FE4FF40051A94805F0B2F9C7
:107BEC00C82004F02FFE4FF40051A54805F0AAF967
:107BFC004FF4FA7004F026FE4FF40051A04805F043
:107C0C00A1F9C82004F01EFE4FF400519C4805F069
:107C1C0099F9642004F016FE4FF40051984805F0D1
:107C2C0091F9C82004F00EFE4FF40051944805F071
:107C3C0089F94FF4FA7004F005FE4FF400519048A6
:107C4C0005F080F9C82004F0FDFD4FF400518C487C
:107C5C0005F078F9642004F0F5FD4FF400518848E4
:107C6C0005F070F9C82004F0EDFD4FF40051844884
:107C7C0005F068F94FF4FA7004F0E4FD4FF400518C
:107C8C007F4805F05FF9C82004F0DCFD4FF400518B
:107C9C007B4805F057F9642004F0D4FD4FF40051F3
:107CAC00774805F04FF9C82004F0CCFD4FF4005193
:107CBC00734805F047F94FF4FA7004F0C3FD4FF424
:107CCC0000516F4805F03EF9C82004F0BBFD4FF49D
:107CDC0000516B4805F036F9642004F0B3FD4FF405
:107CEC000051674805F02EF9C82004F0ABFD4FF4A5
:107CFC000051634805F026F94FF4FA7004F0A2FD28
:107D0C004FF400515E4805F01DF9C82004F09AFDAF
:107D1C004FF400515A4805F015F9642004F092FD17
:107D2C004FF40051564805F00DF9C82004F08AFDB7
:107D3C004FF40051524805F005F94FF4FA7004F075
:107D4C0081FD4FF400514E4805F0FCF8C82004F0BA
:107D5C0079FD4FF400514A4805F0F4F8642004F022
:107D6C0071FD4FF40051464805F0ECF8C82004F0C2
:107D7C0069FD4FF40051424805F0E4F84FF4FA70F5
:107D8C0004F060FD4FF400513D4805F0DBF8C820CD
:107D9C0004F058FD4FF40051394805F0D3F8642035
:107DAC0004F050FD4FF40051354805F0CBF8C820D5
:107DBC0004F048FD4FF40051314805F0C3F84FF47E
:107DCC00FA7004F03FFD4FF400512D4805F0BAF85D
:107DDC00C82004F037FD4FF40051294805F0B2F8E3
:107DEC00642004F02FFD4FF40051254805F0AAF84B
:107DFC00C82004F027FD4FF40051214805F0A2F8EB
:107E0C004FF4FA7004F01EFD4FF400511C4805F0BD
:107E1C0099F8C82004F016FD4FF40051184805F0ED
:107E2C0091F8642004F00EFD4FF40051144805F055
:107E3C0089F8C82004F006FD4FF40051104805F0F5
:107E4C0081F84FF4FA7004F0FDFC4FF400510C482B
:107E5C0005F078F8C82004F0F5FC4FF40051084800
:107E6C0005F070F8642004F0EDFC4FF40051044868
:107E7C0005F068F8C82004F0E5FC4FF4005101E06F
:107E8C0000100140E24805F05DF84FF4FA7004F080
:107E9C00D9FC4FF40051DE4805F054F8C82004F02A
:107EAC00D1FC4FF40051DA4805F04CF8642004F092
:107EBC00C9FC4FF40051D64805F044F8C82004F032
:107ECC00C1FC4FF40051D24805F03CF84FF4FA7065
:107EDC0004F0B8FC4FF40051CD4805F033F8C8203D
:107EEC0004F0B0FC4FF40051C94805F02BF86420A5
:107EFC0004F0A8FC4FF40051C54805F023F8C82045
:107F0C0004F0A0FC4FF40051C14805F01BF84FF4ED
:107F1C00FA7004F097FC4FF40051BD4805F012F8CC
:107F2C00C82004F08FFC4FF40051B94805F00AF852
:107F3C00642004F087FC4FF40051B54805F002F8BA
:107F4C00C82004F07FFC4FF40051B14804F0FAFF54
:107F5C004FF4FA7004F076FC4FF40051AC4804F086
:107F6C00F1FFC82004F06EFC4FF40051A84804F057
:107F7C00E9FF642004F066FC4FF40051A44804F0BF
:107F8C00E1FFC82004F05EFC4FF40051A04804F05F
:107F9C00D9FF4FF4FA7004F055FC4FF400519C4893
:107FAC0004F0D0FFC82004F04DFC4FF40051984869
:107FBC0004F0C8FF642004F045FC4FF400519448D1
:107FCC0004F0C0FFC82004F03DFC4FF40051904871
:107FDC0004F0B8FF4FF4FA7004F034FC4FF4005185
:107FEC008B4804F0AFFFC82004F02CFC4FF4005178
:107FFC00874804F0A7FF642004F024FC4FF40051E0
:10800C00834804F09FFFC82004F01CFC4FF400517F
:10801C007F4804F097FF4FF4FA7004F013FC4FF410
:10802C0000517B4804F08EFFC82004F00BFC4FF489
:10803C000051774804F086FF642004F003FC4FF4F1
:10804C000051734804F07EFFC82004F0FBFB4FF492
:10805C0000516F4804F076FF4FF4FA7004F0F2FB15
:10806C004FF400516A4804F06DFFC82004F0EAFB9D
:10807C004FF40051664804F065FF642004F0E2FB05
:10808C004FF40051624804F05DFFC82004F0DAFBA5
:10809C004FF400515E4804F055FF4FF4FA7004F0B1
:1080AC00D1FB4FF400515A4804F04CFFC82004F0A7
:1080BC00C9FB4FF40051564804F044FF642004F00F
:1080CC00C1FB4FF40051524804F03CFFC82004F0AF
:1080DC00B9FB4FF400514E4804F034FF4FF4FA70E2
:1080EC0004F0B0FB4FF40051494804F02BFFC820BA
:1080FC0004F0A8FB4FF40051454804F023FF642022
:10810C0004F0A0FB4FF40051414804F01BFFC820C1
:10811C0004F098FB4FF400513D4804F013FF4FF46A
:10812C00FA7004F08FFB4FF40051394804F00AFF49
:10813C00C82004F087FB4FF40051354804F002FFCF
:10814C00642004F07FFB4FF40051314804F0FAFE38
:10815C00C82004F077FB4FF400512D4804F0F2FED8
:10816C004FF4FA7004F06EFB4FF40051284804F001
:10817C00E9FEC82004F066FB4FF40051244804F0DB
:10818C00E1FE642004F05EFB4FF40051204804F043
:10819C00D9FEC82004F056FB4FF400511C4804F0E3
:1081AC00D1FE4FF4FA7004F04DFB4FF40051184817
:1081BC0004F0C8FEC82004F045FB4FF400511448ED
:1081CC0004F0C0FE642004F03DFB4FF40051104855
:1081DC0004F0B8FEC82004F035FB4FF400510C48F5
:1081EC0004F0B0FE4FF4FA7004F02CFB4FF4005185
:1081FC00074804F0A7FEC82004F024FB4FF40051FC
:10820C00034804F09FFE642004F01CFB02E000BF56
:10821C00001001404FF40051E24804F093FEC820D6
:10822C0004F010FB4FF40051DE4804F08BFE4FF4C9
:10823C00FA7004F007FB4FF40051DA4804F082FEA8
:10824C00C82004F0FFFA4FF40051D64804F07AFE2F
:10825C00642004F0F7FA4FF40051D24804F072FE97
:10826C00C82004F0EFFA4FF40051CE4804F06AFE37
:10827C004FF4FA7004F0E6FA4FF40051C94804F0D8
:10828C0061FEC82004F0DEFA4FF40051C54804F03A
:10829C0059FE642004F0D6FA4FF40051C14804F0A2
:1082AC0051FEC82004F0CEFA4FF40051BD4804F042
:1082BC0049FE4FF4FA7004F0C5FA4FF40051B94876
:1082CC0004F040FEC82004F0BDFA4FF40051B5484C
:1082DC0004F038FE642004F0B5FA4FF40051B148B4
:1082EC0004F030FEC82004F0ADFA4FF40051AD4854
:1082FC0004F028FE4FF4FA7004F0A4FA4FF4005185
:10830C00A84804F01FFEC82004F09CFA4FF400515A
:10831C00A44804F017FE642004F094FA4FF40051C2
:10832C00A04804F00FFEC82004F08CFA4FF4005162
:10833C009C4804F007FE4FF4FA7004F083FA4FF4F3
:10834C000051984804F0FEFDC82004F07BFA4FF46D
:10835C000051944804F0F6FD642004F073FA4FF4D5
:10836C000051904804F0EEFDC82004F06BFA4FF475
:10837C0000518C4804F0E6FD4FF4FA7004F062FAF8
:10838C004FF40051874804F0DDFDC82004F05AFA80
:10839C004FF40051834804F0D5FD642004F052FAE8
:1083AC004FF400517F4804F0CDFDC82004F04AFA88
:1083BC004FF400517B4804F0C5FD4FF4FA7004F003
:1083CC0041FA4FF40051774804F0BCFDC82004F08A
:1083DC0039FA4FF40051734804F0B4FD642004F0F2
:1083EC0031FA4FF400516F4804F0ACFDC82004F092
:1083FC0029FA4FF400516B4804F0A4FD4FF4FA70C5
:10840C0004F020FA4FF40051664804F09BFDC8209C
:10841C0004F018FA4FF40051624804F093FD642004
:10842C0004F010FA4FF400515E4804F08BFDC820A4
:10843C0004F008FA4FF400515A4804F083FD4FF44D
:10844C00FA7004F0FFF94FF40051564804F07AFD2D
:10845C00C82004F0F7F94FF40051524804F072FDB3
:10846C00642004F0EFF94FF400514E4804F06AFD1B
:10847C00C82004F0E7F94FF400514A4804F062FDBB
:10848C004FF4FA7004F0DEF94FF40051454804F053
:10849C0059FDC82004F0D6F94FF40051414804F0BE
:1084AC0051FD642004F0CEF94FF400513D4804F026
:1084BC0049FDC82004F0C6F94FF40051394804F0C6
:1084CC0041FD4FF4FA7004F0BDF94FF400513548FA
:1084DC0004F038FDC82004F0B5F94FF400513148D0
:1084EC0004F030FD642004F0ADF94FF400512D4838
:1084FC0004F028FDC82004F0A5F94FF400512948D8
:10850C0004F020FD4FF4FA7004F09CF94FF4005184
:10851C00244804F017FDC82004F094F94FF40051DE
:10852C00204804F00FFD642004F08CF94FF4005146
:10853C001C4804F007FDC82004F084F94FF40051E6
:10854C00184804F0FFFC4FF4FA7004F07BF94FF478
:10855C000051144804F0F6FCC82004F073F94FF4F1
:10856C000051104804F0EEFC642004F06BF94FF459
:10857C0000510C4804F0E6FCC82004F063F94FF4F9
:10858C000051084804F0DEFC4FF4FA7004F05AF97C
:10859C004FF40051034804F0D5FCC82004F052F904
:1085AC0002E000BF001001404FF40051E24804F01B
:1085BC00C9FC642004F046F94FF40051DE4804F085
:1085CC00C1FCC82004F03EF94FF40051DA4804F025
:1085DC00B9FC4FF4FA7004F035F94FF40051D64859
:1085EC0004F0B0FCC82004F02DF94FF40051D2482F
:1085FC0004F0A8FC642004F025F94FF40051CE4897
:10860C0004F0A0FCC82004F01DF94FF40051CA4836
:10861C0004F098FC4FF4FA7004F014F94FF4005184
:10862C00C54804F08FFCC82004F00CF94FF400513D
:10863C00C14804F087FC642004F004F94FF40051A5
:10864C00BD4804F07FFCC82004F0FCF84FF4005146
:10865C00B94804F077FC4FF4FA7004F0F3F84FF4D7
:10866C000051B54804F06EFCC82004F0EBF84FF450
:10867C000051B14804F066FC642004F0E3F84FF4B8
:10868C000051AD4804F05EFCC82004F0DBF84FF458
:10869C000051A94804F056FC4FF4FA7004F0D2F8DB
:1086AC004FF40051A44804F04DFCC82004F0CAF863
:1086BC004FF40051A04804F045FC642004F0C2F8CB
:1086CC004FF400519C4804F03DFCC82004F0BAF86B
:1086DC004FF40051984804F035FC4FF4FA7004F054
:1086EC00B1F84FF40051944804F02CFCC82004F06D
:1086FC00A9F84FF40051904804F024FC642004F0D5
:10870C00A1F84FF400518C4804F01CFCC82004F074
:10871C0099F84FF40051884804F014FC4FF4FA70A7
:10872C0004F090F84FF40051834804F00BFCC8207F
:10873C0004F088F84FF400517F4804F003FC6420E7
:10874C0004F080F84FF400517B4804F0FBFBC82088
:10875C0004F078F84FF40051774804F0F3FB4FF431
:10876C00FA7004F06FF84FF40051734804F0EAFB10
:10877C00C82004F067F84FF400516F4804F0E2FB96
:10878C00642004F05FF84FF400516B4804F0DAFBFE
:10879C00C82004F057F84FF40051674804F0D2FB9E
:1087AC004FF4FA7004F04EF84FF40051624804F0A4
:1087BC00C9FBC82004F046F84FF400515E4804F0A1
:1087CC00C1FB642004F03EF84FF400515A4804F009
:1087DC00B9FBC82004F036F84FF40051564804F0A9
:1087EC00B1FB4FF4FA7004F02DF84FF400515248DD
:1087FC0004F0A8FBC82004F025F84FF400514E48B3
:10880C0004F0A0FB642004F01DF84FF400514A481A
:10881C0004F098FBC82004F015F84FF400514648BA
:10882C0004F090FB4FF4FA7004F00CF84FF4005184
:10883C00414804F087FBC82004F004F84FF40051C1
:10884C003D4804F07FFB642003F0FCFF4FF4005123
:10885C00394804F077FBC82003F0F4FF4FF40051C3
:10886C00354804F06FFB4FF4FA7003F0EBFF4FF454
:10887C000051314804F066FBC82003F0E3FF4FF4CD
:10888C0000512D4804F05EFB642003F0DBFF4FF435
:10889C000051294804F056FBC82003F0D3FF4FF4D5
:1088AC000051254804F04EFB4FF4FA7003F0CAFF58
:1088BC004FF40051204804F045FBC82003F0C2FFE0
:1088CC004FF400511C4804F03DFB642003F0BAFF48
:1088DC004FF40051184804F035FBC82003F0B2FFE8
:1088EC004FF40051144804F02DFB4FF4FA7003F0D0
:1088FC00A9FF4FF40051104804F024FBC82003F0EA
:10890C00A1FF4FF400510C4804F01CFB642003F051
:10891C0099FF4FF40051084804F014FBC82003F0F1
:10892C0091FF4FF40051044804F00CFB4FF4FA7023
:10893C0003F088FF02E000BF001001404FF400512B
:10894C00E24804F0FFFAC82003F07CFF4FF400511A
:10895C00DE4804F0F7FA642003F074FF4FF4005182
:10896C00DA4804F0EFFAC82003F06CFF4FF4005122
:10897C00D64804F0E7FA4FF4FA7003F063FF4FF4B3
:10898C000051D24804F0DEFAC82003F05BFF4FF42C
:10899C000051CE4804F0D6FA642003F053FF4FF494
:1089AC000051CA4804F0CEFAC82003F04BFF4FF434
:1089BC000051C64804F0C6FA4FF4FA7003F042FFB7
:1089CC004FF40051C14804F0BDFAC82003F03AFF3F
:1089DC004FF40051BD4804F0B5FA642003F032FFA7
:1089EC004FF40051B94804F0ADFAC82003F02AFF47
:1089FC004FF40051B54804F0A5FA4FF4FA7003F0A7
:108A0C0021FF4FF40051B14804F09CFAC82003F048
:108A1C0019FF4FF40051AD4804F094FA642003F0B0
:108A2C0011FF4FF40051A94804F08CFAC82003F050
:108A3C0009FF4FF40051A54804F084FA4FF4FA7082
:108A4C0003F000FF4FF40051A04804F07BFAC8205B
:108A5C0003F0F8FE4FF400519C4804F073FA6420C4
:108A6C0003F0F0FE4FF40051984804F06BFAC82064
:108A7C0003F0E8FE4FF40051944804F063FA4FF40D
:108A8C00FA7003F0DFFE4FF40051904804F05AFAEC
:108A9C00C82003F0D7FE4FF400518C4804F052FA72
:108AAC00642003F0CFFE4FF40051884804F04AFADA
:108ABC00C82003F0C7FE4FF40051844804F042FA7A
:108ACC004FF4FA7003F0BEFE4FF400517F4804F0EF
:108ADC0039FAC82003F0B6FE4FF400517B4804F07D
:108AEC0031FA642003F0AEFE4FF40051774804F0E5
:108AFC0029FAC82003F0A6FE4FF40051734804F085
:108B0C0021FA4FF4FA7003F09DFE4FF400516F48B8
:108B1C0004F018FAC82003F095FE4FF400516B488E
:108B2C0004F010FA642003F08DFE4FF400516748F6
:108B3C0004F008FAC82003F085FE4FF40051634896
:108B4C0004F000FA4FF4FA7003F07CFE4FF400517D
:108B5C005E4804F0F7F9C82003F074FE4FF400519E
:108B6C005A4804F0EFF9642003F06CFE4FF4005106
:108B7C00564804F0E7F9C82003F064FE4FF40051A6
:108B8C00524804F0DFF94FF4FA7003F05BFE4FF437
:108B9C0000514E4804F0D6F9C82003F053FE4FF4B0
:108BAC0000514A4804F0CEF9642003F04BFE4FF418
:108BBC000051464804F0C6F9C82003F043FE4FF4B8
:108BCC000051424804F0BEF94FF4FA7003F03AFE3B
:108BDC004FF400513D4804F0B5F9C82003F032FEC3
:108BEC004FF40051394804F0ADF9642003F02AFE2B
:108BFC004FF40051354804F0A5F9C82003F022FECB
:108C0C004FF40051314804F09DF94FF4FA7003F021
:108C1C0019FE4FF400512D4804F094F9C82003F0CC
:108C2C0011FE4FF40051294804F08CF9642003F034
:108C3C0009FE4FF40051254804F084F9C82003F0D4
:108C4C0001FE4FF40051214804F07CF94FF4FA7006
:108C5C0003F0F8FD4FF400511C4804F073F9C820E0
:108C6C0003F0F0FD4FF40051184804F06BF9642048
:108C7C0003F0E8FD4FF40051144804F063F9C820E8
:108C8C0003F0E0FD4FF40051104804F05BF94FF491
:108C9C00FA7003F0D7FD4FF400510C4804F052F970
:108CAC00C82003F0CFFD4FF40051084804F04AF9F6
:108CBC00642003F0C7FD4FF40051044804F042F95E
:108CCC00C82003F0BFFD4FF4005101E0001001403B
:108CDC00E24804F037F94FF4FA7003F0B3FD4FF4A7
:108CEC000051DE4804F02EF9C82003F0ABFD4FF420
:108CFC000051DA4804F026F9642003F0A3FD4FF488
:108D0C000051D64804F01EF9C82003F09BFD4FF427
:108D1C000051D24804F016F94FF4FA7003F092FDAA
:108D2C004FF40051CD4804F00DF9C82003F08AFD32
:108D3C004FF40051C94804F005F9642003F082FD9A
:108D4C004FF40051C54804F0FDF8C82003F07AFD3B
:108D5C004FF40051C14804F0F5F84FF4FA7003F0E9
:108D6C0071FD4FF40051BD4804F0ECF8C82003F03D
:108D7C0069FD4FF40051B94804F0E4F8642003F0A5
:108D8C0061FD4FF40051B54804F0DCF8C82003F045
:108D9C0059FD4FF40051B14804F0D4F84FF4FA7077
:108DAC0003F050FD4FF40051AC4804F0CBF8C82050
:108DBC0003F048FD4FF40051A84804F0C3F86420B8
:108DCC0003F040FD4FF40051A44804F0BBF8C82058
:108DDC0003F038FD4FF40051A04804F0B3F84FF401
:108DEC00FA7003F02FFD4FF400519C4804F0AAF8E0
:108DFC00C82003F027FD4FF40051984804F0A2F866
:108E0C00642003F01FFD4FF40051944804F09AF8CD
:108E1C00C82003F017FD4FF40051904804F092F86D
:108E2C004FF4FA7003F00EFD4FF400518B4804F030
:108E3C0089F8C82003F006FD4FF40051874804F070
:108E4C0081F8642003F0FEFC4FF40051834804F0D9
:108E5C0079F8C82003F0F6FC4FF400517F4804F079
:108E6C0071F84FF4FA7003F0EDFC4FF400517B48AD
:108E7C0004F068F8C82003F0E5FC4FF40051774883
:108E8C0004F060F8642003F0DDFC4FF400517348EB
:108E9C0004F058F8C82003F0D5FC4FF400516F488B
:108EAC0004F050F84FF4FA7003F0CCFC4FF400517E
:108EBC006A4804F047F8C82003F0C4FC4FF4005192
:108ECC00664804F03FF8642003F0BCFC4FF40051FA
:108EDC00624804F037F8C82003F0B4FC4FF400519A
:108EEC005E4804F02FF84FF4FA7003F0ABFC4FF42B
:108EFC0000515A4804F026F8C82003F0A3FC4FF4A4
:108F0C000051564804F01EF8642003F09BFC4FF40B
:108F1C000051524804F016F8C82003F093FC4FF4AB
:108F2C0000514E4804F00EF84FF4FA7003F08AFC2E
:108F3C004FF40051494804F005F8C82003F082FCB6
:108F4C004FF40051454803F0FDFF642003F07AFC18
:108F5C004FF40051414803F0F5FFC82003F072FCB8
:108F6C004FF400513D4803F0EDFF4FF4FA7003F05D
:108F7C0069FC4FF40051394803F0E4FFC82003F0BA
:108F8C0061FC4FF40051354803F0DCFF642003F022
:108F9C0059FC4FF40051314803F0D4FFC82003F0C2
:108FAC0051FC4FF400512D4803F0CCFF4FF4FA70F4
:108FBC0003F048FC4FF40051284803F0C3FFC820CD
:108FCC0003F040FC4FF40051244803F0BBFF642035
:108FDC0003F038FC4FF40051204803F0B3FFC820D5
:108FEC0003F030FC4FF400511C4803F0ABFF4FF47E
:108FFC00FA7003F027FC4FF40051184803F0A2FF5D
:10900C00C82003F01FFC4FF40051144803F09AFFE2
:10901C00642003F017FC4FF40051104803F092FF4A
:10902C00C82003F00FFC4FF400510C4803F08AFFEA
:10903C004FF4FA7003F006FC4FF40051074803F0AC
:10904C0081FFC82003F0FEFB4FF40051034803F0EE
:10905C0079FF642003F0F6FB02E000BF0010014032
:10906C004FF40051E24803F06DFFC82003F0EAFB17
:10907C004FF40051DE4803F065FF4FF4FA7003F033
:10908C00E1FB4FF40051DA4803F05CFFC82003F019
:10909C00D9FB4FF40051D64803F054FF642003F081
:1090AC00D1FB4FF40051D24803F04CFFC82003F021
:1090BC00C9FB4FF40051CE4803F044FF4FF4FA7053
:1090CC0003F0C0FB4FF40051C94803F03BFFC8202C
:1090DC0003F0B8FB4FF40051C54803F033FF642094
:1090EC0003F0B0FB4FF40051C14803F02BFFC82034
:1090FC0003F0A8FB4FF40051BD4803F023FF4FF4DD
:10910C00FA7003F09FFB4FF40051B94803F01AFFBB
:10911C00C82003F097FB4FF40051B54803F012FF41
:10912C00642003F08FFB4FF40051B14803F00AFFA9
:10913C00C82003F087FB4FF40051AD4803F002FF49
:10914C004FF4FA7003F07EFB4FF40051A84803F083
:10915C00F9FEC82003F076FB4FF40051A44803F04D
:10916C00F1FE642003F06EFB4FF40051A04803F0B5
:10917C00E9FEC82003F066FB4FF400519C4803F055
:10918C00E1FE4FF4FA7003F05DFB4FF40051984888
:10919C0003F0D8FEC82003F055FB4FF4005194485F
:1091AC0003F0D0FE642003F04DFB4FF400519048C7
:1091BC0003F0C8FEC82003F045FB4FF400518C4867
:1091CC0003F0C0FE4FF4FA7003F03CFB4FF4005177
:1091DC00874803F0B7FEC82003F034FB4FF400516E
:1091EC00834803F0AFFE642003F02CFB4FF40051D6
:1091FC007F4803F0A7FEC82003F024FB4FF4005176
:10920C007B4803F09FFE4FF4FA7003F01BFB4FF406
:10921C000051774803F096FEC82003F013FB4FF47F
:10922C000051734803F08EFE642003F00BFB4FF4E7
:10923C0000516F4803F086FEC82003F003FB4FF487
:10924C0000516B4803F07EFE4FF4FA7003F0FAFA0B
:10925C004FF40051664803F075FEC82003F0F2FA93
:10926C004FF40051624803F06DFE642003F0EAFAFB
:10927C004FF400515E4803F065FEC82003F0E2FA9B
:10928C004FF400515A4803F05DFE4FF4FA7003F0AE
:10929C00D9FA4FF40051564803F054FEC82003F09D
:1092AC00D1FA4FF40051524803F04CFE642003F005
:1092BC00C9FA4FF400514E4803F044FEC82003F0A5
:1092CC00C1FA4FF400514A4803F03CFE4FF4FA70D7
:1092DC0003F0B8FA4FF40051454803F033FEC820B0
:1092EC0003F0B0FA4FF40051414803F02BFE642018
:1092FC0003F0A8FA4FF400513D4803F023FEC820B8
:10930C0003F0A0FA4FF40051394803F01BFE4FF460
:10931C00FA7003F097FA4FF40051354803F012FE3F
:10932C00C82003F08FFA4FF40051314803F00AFEC5
:10933C00642003F087FA4FF400512D4803F002FE2D
:10934C00C82003F07FFA4FF40051294803F0FAFDCE
:10935C004FF4FA7003F076FA4FF40051244803F0FE
:10936C00F1FDC82003F06EFA4FF40051204803F0D1
:10937C00E9FD642003F066FA4FF400511C4803F039
:10938C00E1FDC82003F05EFA4FF40051184803F0D9
:10939C00D9FD4FF4FA7003F055FA4FF4005114480C
:1093AC0003F0D0FDC82003F04DFA4FF400511048E3
:1093BC0003F0C8FD642003F045FA4FF400510C484B
:1093CC0003F0C0FDC82003F03DFA4FF400510848EB
:1093DC0003F0B8FD4FF4FA7003F034FA4FF4005177
:1093EC00034803F0AFFDC82003F02CFA02E000BFE5
:1093FC00001001404FF40051E24803F0A3FD64203B
:10940C0003F020FA4FF40051DE4803F09BFDC82016
:10941C0003F018FA4FF40051DA4803F093FD4FF4BF
:10942C00FA7003F00FFA4FF40051D64803F08AFD9E
:10943C00C82003F007FA4FF40051D24803F082FD24
:10944C00642003F0FFF94FF40051CE4803F07AFD8D
:10945C00C82003F0F7F94FF40051CA4803F072FD2D
:10946C004FF4FA7003F0EEF94FF40051C54803F0D5
:10947C0069FDC82003F0E6F94FF40051C14803F030
:10948C0061FD642003F0DEF94FF40051BD4803F098
:10949C0059FDC82003F0D6F94FF40051B94803F038
:1094AC0051FD4FF4FA7003F0CDF94FF40051B5486B
:1094BC0003F048FDC82003F0C5F94FF40051B14842
:1094CC0003F040FD642003F0BDF94FF40051AD48AA
:1094DC0003F038FDC82003F0B5F94FF40051A9484A
:1094EC0003F030FD4FF4FA7003F0ACF94FF4005177
:1094FC00A44803F027FDC82003F0A4F94FF4005151
:10950C00A04803F01FFD642003F09CF94FF40051B8
:10951C009C4803F017FDC82003F094F94FF4005158
:10952C00984803F00FFD4FF4FA7003F08BF94FF4E9
:10953C000051944803F006FDC82003F083F94FF462
:10954C000051904803F0FEFC642003F07BF94FF4CB
:10955C0000518C4803F0F6FCC82003F073F94FF46B
:10956C000051884803F0EEFC4FF4FA7003F06AF9EE
:10957C004FF40051834803F0E5FCC82003F062F976
:10958C004FF400517F4803F0DDFC642003F05AF9DE
:10959C004FF400517B4803F0D5FCC82003F052F97E
:1095AC004FF40051774803F0CDFC4FF4FA7003F000
:1095BC0049F94FF40051734803F0C4FCC82003F080
:1095CC0041F94FF400516F4803F0BCFC642003F0E8
:1095DC0039F94FF400516B4803F0B4FCC82003F088
:1095EC0031F94FF40051674803F0ACFC4FF4FA70BA
:1095FC0003F028F94FF40051624803F0A3FCC82093
:10960C0003F020F94FF400515E4803F09BFC6420FA
:10961C0003F018F94FF400515A4803F093FCC8209A
:10962C0003F010F94FF40051564803F08BFC4FF443
:10963C00FA7003F007F94FF40051524803F082FC22
:10964C00C82003F0FFF84FF400514E4803F07AFCA9
:10965C00642003F0F7F84FF400514A4803F072FC11
:10966C00C82003F0EFF84FF40051464803F06AFCB1
:10967C004FF4FA7003F0E6F84FF40051414803F050
:10968C0061FCC82003F0DEF84FF400513D4803F0B4
:10969C0059FC642003F0D6F84FF40051394803F01C
:1096AC0051FCC82003F0CEF84FF40051354803F0BC
:1096BC0049FC4FF4FA7003F0C5F84FF400513148EF
:1096CC0003F040FCC82003F0BDF84FF400512D48C6
:1096DC0003F038FC642003F0B5F84FF4005129482E
:1096EC0003F030FCC82003F0ADF84FF400512548CE
:1096FC0003F028FC4FF4FA7003F0A4F84FF4005177
:10970C00204803F01FFCC82003F09CF84FF40051D4
:10971C001C4803F017FC642003F094F84FF400513C
:10972C00184803F00FFCC82003F08CF84FF40051DC
:10973C00144803F007FC4FF4FA7003F083F84FF46D
:10974C000051104803F0FEFBC82003F07BF84FF4E7
:10975C0000510C4803F0F6FB642003F073F84FF44F
:10976C000051084803F0EEFBC82003F06BF84FF4EF
:10977C000051044803F0E6FB4FF4FA7003F062F872
:10978C0002E000BF001001404FF40051E24803F02A
:10979C00D9FBC82003F056F84FF40051DE4803F013
:1097AC00D1FB642003F04EF84FF40051DA4803F07B
:1097BC00C9FBC82003F046F84FF40051D64803F01B
:1097CC00C1FB4FF4FA7003F03DF84FF40051D2484E
:1097DC0003F0B8FBC82003F035F84FF40051CE4825
:1097EC0003F0B0FB642003F02DF84FF40051CA488D
:1097FC0003F0A8FBC82003F025F84FF40051C6482D
:10980C0003F0A0FB4FF4FA7003F01CF84FF4005176
:10981C00C14803F097FBC82003F014F84FF4005133
:10982C00BD4803F08FFB642003F00CF84FF400519B
:10983C00B94803F087FBC82003F004F84FF400513B
:10984C00B54803F07FFB4FF4FA7002F0FBFF4FF4C6
:10985C000051B14803F076FBC82002F0F3FF4FF43F
:10986C000051AD4803F06EFB642002F0EBFF4FF4A7
:10987C000051A94803F066FBC82002F0E3FF4FF447
:10988C000051A54803F05EFB4FF4FA7002F0DAFFCA
:10989C004FF40051A04803F055FBC82002F0D2FF52
:1098AC004FF400519C4803F04DFB642002F0CAFFBA
:1098BC004FF40051984803F045FBC82002F0C2FF5A
:1098CC004FF40051944803F03DFB4FF4FA7002F052
:1098DC00B9FF4FF40051904803F034FBC82002F05C
:1098EC00B1FF4FF400518C4803F02CFB642002F0C4
:1098FC00A9FF4FF40051884803F024FBC82002F064
:10990C00A1FF4FF40051844803F01CFB4FF4FA7094
:10991C0002F098FF4FF400517F4803F013FBC8206E
:10992C0002F090FF4FF400517B4803F00BFB6420D6
:10993C0002F088FF4FF40051774803F003FBC82076
:10994C0002F080FF4FF40051734803F0FBFA4FF420
:10995C00FA7002F077FF4FF400516F4803F0F2FAFF
:10996C00C82002F06FFF4FF400516B4803F0EAFA85
:10997C00642002F067FF4FF40051674803F0E2FAED
:10998C00C82002F05FFF4FF40051634803F0DAFA8D
:10999C004FF4FA7002F056FF4FF400515E4803F09A
:1099AC00D1FAC82002F04EFF4FF400515A4803F090
:1099BC00C9FA642002F046FF4FF40051564803F0F8
:1099CC00C1FAC82002F03EFF4FF40051524803F098
:1099DC00B9FA4FF4FA7002F035FF4FF400514E48CB
:1099EC0003F0B0FAC82002F02DFF4FF400514A48A2
:1099FC0003F0A8FA642002F025FF4FF4005146480A
:109A0C0003F0A0FAC82002F01DFF4FF400514248A9
:109A1C0003F098FA4FF4FA7002F014FF4FF400516F
:109A2C003D4803F08FFAC82002F00CFF4FF40051B0
:109A3C00394803F087FA642002F004FF4FF4005118
:109A4C00354803F07FFAC82002F0FCFE4FF40051B9
:109A5C00314803F077FA4FF4FA7002F0F3FE4FF44A
:109A6C0000512D4803F06EFAC82002F0EBFE4FF4C3
:109A7C000051294803F066FA642002F0E3FE4FF42B
:109A8C000051254803F05EFAC82002F0DBFE4FF4CB
:109A9C000051214803F056FA4FF4FA7002F0D2FE4E
:109AAC004FF400511C4803F04DFAC82002F0CAFED6
:109ABC004FF40051184803F045FA642002F0C2FE3E
:109ACC004FF40051144803F03DFAC82002F0BAFEDE
:109ADC004FF40051104803F035FA4FF4FA7002F0CD
:109AEC00B1FE4FF400510C4803F02CFAC82002F0E0
:109AFC00A9FE4FF40051084803F024FA642002F048
:109B0C00A1FE4FF40051044803F01CFAC82002F0E7
:109B1C0099FE4FF4005101E000100140E24803F0BF
:109B2C0011FA4FF4FA7002F08DFE4FF40051DE483A
:109B3C0003F008FAC82002F085FE4FF40051DA4811
:109B4C0003F000FA642002F07DFE4FF40051D64879
:109B5C0003F0F8F9C82002F075FE4FF40051D2481A
:109B6C0003F0F0F94FF4FA7002F06CFE4FF4005170
:109B7C00CD4803F0E7F9C82002F064FE4FF4005121
:109B8C00C94803F0DFF9642002F05CFE4FF4005189
:109B9C00C54803F0D7F9C82002F054FE4FF4005129
:109BAC00C14803F0CFF94FF4FA7002F04BFE4FF4BA
:109BBC000051BD4803F0C6F9C82002F043FE4FF433
:109BCC000051B94803F0BEF9642002F03BFE4FF49B
:109BDC000051B54803F0B6F9C82002F033FE4FF43B
:109BEC000051B14803F0AEF94FF4FA7002F02AFEBE
:109BFC004FF40051AC4803F0A5F9C82002F022FE46
:109C0C004FF40051A84803F09DF9642002F01AFEAD
:109C1C004FF40051A44803F095F9C82002F012FE4D
:109C2C004FF40051A04803F08DF94FF4FA7002F094
:109C3C0009FE4FF400519C4803F084F9C82002F04F
:109C4C0001FE4FF40051984803F07CF9642002F0B7
:109C5C00F9FD4FF40051944803F074F9C82002F058
:109C6C00F1FD4FF40051904803F06CF94FF4FA7089
:109C7C0002F0E8FD4FF400518B4803F063F9C82063
:109C8C0002F0E0FD4FF40051874803F05BF96420CB
:109C9C0002F0D8FD4FF40051834803F053F9C8206B
:109CAC0002F0D0FD4FF400517F4803F04BF94FF414
:109CBC00FA7002F0C7FD4FF400517B4803F042F9F3
:109CCC00C82002F0BFFD4FF40051774803F03AF979
:109CDC00642002F0B7FD4FF40051734803F032F9E1
:109CEC00C82002F0AFFD4FF400516F4803F02AF981
:109CFC004FF4FA7002F0A6FD4FF400516A4803F0DD
:109D0C0021F9C82002F09EFD4FF40051664803F083
:109D1C0019F9642002F096FD4FF40051624803F0EB
:109D2C0011F9C82002F08EFD4FF400515E4803F08B
:109D3C0009F94FF4FA7002F085FD4FF400515A48BE
:109D4C0003F000F9C82002F07DFD4FF40051564895
:109D5C0003F0F8F8642002F075FD4FF400515248FE
:109D6C0003F0F0F8C82002F06DFD4FF400514E489E
:109D7C0003F0E8F84FF4FA7002F064FD4FF4005170
:109D8C00494803F0DFF8C82002F05CFD4FF40051A5
:109D9C00454803F0D7F8642002F054FD4FF400510D
:109DAC00414803F0CFF8C82002F04CFD4FF40051AD
:109DBC003D4803F0C7F84FF4FA7002F043FD4FF43E
:109DCC000051394803F0BEF8C82002F03BFD4FF4B7
:109DDC000051354803F0B6F8642002F033FD4FF41F
:109DEC000051314803F0AEF8C82002F02BFD4FF4BF
:109DFC0000512D4803F0A6F84FF4FA7002F022FD42
:109E0C004FF40051284803F09DF8C82002F01AFDC9
:109E1C004FF40051244803F095F8642002F012FD31
:109E2C004FF40051204803F08DF8C82002F00AFDD1
:109E3C004FF400511C4803F085F84FF4FA7002F00F
:109E4C0001FD4FF40051184803F07CF8C82002F0D3
:109E5C00F9FC4FF40051144803F074F8642002F03C
:109E6C00F1FC4FF40051104803F06CF8C82002F0DC
:109E7C00E9FC4FF400510C4803F064F84FF4FA700D
:109E8C0002F0E0FC4FF40051074803F05BF8C820E7
:109E9C0002F0D8FC4FF40051034803F053F864204F
:109EAC0002F0D0FC02E000BF001001404FF4005162
:109EBC00E24803F047F8C82002F0C4FC4FF400510C
:109ECC00DE4803F03FF84FF4FA7002F0BBFC4FF49D
