:020000040800F2
:1000000000500020250B0008750900087B09000836
:1000100081090008870900088D0900080000000018
:10002000000000000000000000000000930900082C
:100030009F09000800000000AB090008B70900088C
:100040006D0B00086D0B00086D0B00086D0B0008B0
:100050006D0B00086D0B00086D0B00086D0B0008A0
:100060006D0B00086D0B00086D0B00086D0B000890
:100070006D0B00086D0B00086D0B00086D0B000880
:100080006D0B00086D0B00086D0B00086D0B000870
:100090006D0B00086D0B00086D0B00086D0B000860
:1000A0006D0B00086D0B00086D0B00086D0B000850
:1000B0006D0B00086D0B00086D0B00086D0B000840
:1000C0006D0B00086D0B00086D0B00086D0B000830
:1000D0006D0B0008C50900086D0B00086D0B0008CA
:1000E0006D0B00086D0B00086D0B00080000000090
:1000F0000000000000000000000000000000000000
:0C01000000000000000000005FF808F1A3
:10010C0010B5054C237833B9044B13B10448AFF345
:10011C0000800123237010BD780000200000000037
:10012C00F03B000808B5034B1BB103490348AFF380
:10013C00008008BD000000007C000020F03B00089F
:10014C0080B500AF00F00EFD00F01AF800F0B2F828
:10015C0000F05CF800F084F801220649064802F031
:10016C0015F8064802F0CEFE00F096FA00F00AFBF5
:10017C00FEE700BF2401002094000020083C00088A
:10018C0080B590B000AF07F1180328220021184663
:10019C0002F098FF3B1D00221A605A609A60DA60E8
:1001AC001A610123BB614FF48033FB6100233B6276
:1001BC000123BB6202237B634FF48033BB634FF498
:1001CC00E013FB6307F11803184601F0C7FA034666
:1001DC00002B01D000F004FB0F237B600223BB60DB
:1001EC000023FB604FF480633B6100237B613B1D6C
:1001FC000221184601F034FD0346002B01D000F01B
:10020C00EFFA00BF4037BD4680BD000080B500AF9F
:10021C00114B124A1A60104B4FF4E1325A600E4BDC
:10022C0000229A600C4B0022DA600B4B00221A6100
:10023C00094B0C225A61084B00229A61064B002292
:10024C00DA61054801F09AFE0346002B01D000F05C
:10025C00C7FA00BF80BD00BF9400002000380140E9
:10026C0080B500AF114B124A1A60104B4FF4E132BB
:10027C005A600E4B00229A600C4B0022DA600B4B3A
:10028C0000221A61094B08225A61084B00229A611C
:10029C00064B0022DA61054801F070FE0346002B84
:1002AC0001D000F09DFA00BF80BD00BFDC00002033
:1002BC000044004080B588B000AF07F11003002265
:1002CC001A605A609A60DA60244B9B69234A43F0A7
:1002DC0010039361214B9B6903F01003FB60FB68D7
:1002EC001E4B9B691D4A43F0200393611B4B9B697A
:1002FC0003F02003BB60BB68184B9B69174A43F0A3
:10030C0004039361154B9B6903F004037B607B68CA
:10031C0000224FF40051124801F0EEF94FF4005353
:10032C003B6101237B610023BB610223FB6107F16D
:10033C00100319460A4801F05BF84FF480733B61D7
:10034C0000237B610023BB6107F1100319460548AC
:10035C0001F04EF800BF2037BD4680BD00100240B2
:10036C00001001400008014080B582B000AF7860F9
:10037C00391D4FF0FF330122034801F04FFE7B681B
:10038C0018460837BD4680BDDC000020B0B58AB0E9
:10039C0000AF78600B467B8013467B7000F098FEB4
:1003AC00034687F8273097F82730002B65D17B78E8
:1003BC00002B17D00023FB60354B7B612F23BB61D7
:1003CC0007F1080207F10C031146184600F068FF0C
:1003DC00034687F8273097F82730002B4FD12D4B49
:1003EC0000221A8000233B6231E03B6A5B001A4614
:1003FC007B6813441B781AB23B6A5B000133796843
:10040C000B441B781B021BB213431BB2FB83214B07
:10041C001B8803F1006303F588431946FB8B00220C
:10042C001C46154622462B46012000F0E1FD0346F2
:10043C0087F8273097F82730002B10D1154B1B88E5
:10044C0002339AB2134B1A803B6A01333B627B88AE
:10045C005B089BB21A463B6A9342C6DB00E000BFC6
:10046C0097F82730002B0CD100F058FE034687F884
:10047C00273097F82730002B04E000BF02E000BFC4
:10048C0000E000BF97F8273018462837BD46B0BDAE
:10049C00004400083405002080B582B000AF7860BD
:1004AC006D4B00221A604FF400516C4801F03CF97E
:1004BC006B4B1B885A1C91B2694A11801A46694BC6
:1004CC001978694B9954694B1B780A2B49D0654BA9
:1004DC001B787B2B03D0644B1B787B2B06D1634B97
:1004EC001B78002B02D1614B01221A705F4B1B78D9
:1004FC00012B36D15B4B1B787D2B03D0594B1B78D2
:10050C007D2B2ED1564B1B88072B2AD8544B1B887E
:10051C00042B26D9544B00221A70534B00225A71CB
:10052C00514B5B781A06504B9B781B041A434E4B6D
:10053C00DB781B0213434C4A127913431A464C4B7B
:10054C001A604B4B1B684B4A13604B4B1B780133A7
:10055C00DAB2494B1A70424B00221A80434B0A22E2
:10056C001A703F4B1B881A46444B1B689A4269D140
:10057C003B4B1B881A46424B1A603D4B1B68B3F52C
:10058C00806F13D33A4B1A683C4B1B68D31A384A0A
:10059C0013603A4B4FF480621A60384B1B689AB266
:1005AC00384B1B8813449AB2364B1A80304B1B685D
:1005BC00B3F5806F0CD22E4B1B68304A13602F4B57
:1005CC001B689AB22F4B1B8813449AB22D4B1A807E
:1005DC00234B1B88B3F5806F06D02A4B1B881A4619
:1005EC00244B1B689A421CD3224B1A68204B1B6865
:1005FC00D31A1946244802F01FFC224B1B88B3F572
:10060C00806F94BF01230023DBB21A464FF4806144
:10061C001548FFF7BBFE0346002B02D01B4802F027
:10062C0071FC0F4B00221A800F4B1A780D4B1B7864
:10063C001344DAB2164B1A704FF4806200210A4848
:10064C0002F040FD01220749124801F09FFD00BF56
:10065C000837BD4680BD00BF3805002000100140A2
:10066C002805002024010020280100202B05002053
:10067C0004000020080000202A0500200C000020A7
:10068C0030050020360500201C3C00082C3C0008DE
:10069C002C0500209400002080B500AF2D4B1B785A
:1006AC000A2B0DD1012000F0BFFA01222A492B4858
:1006BC0001F037FD2A4B00221A80264B14221A70A7
:1006CC00284B1B68002B0AD0012000F0ADFA012248
:1006DC002549224801F025FD224B00221A60234BAC
:1006EC001B680133214A1360204B1968204BA3FB74
:1006FC000123DA0813469B0013445B00CA1A002A34
:10070C0004D14FF400511B4801F00EF8012000F009
:10071C008BFA194B1B881A46184B1B689A4208D344
:10072C000C4B1B78142B04D1104B1B68B3F57A7F40
:10073C0005D80E4B1B6841F288329342AED9012288
:10074C000949064801F0EDFC0D4802F0DBFB00BF47
:10075C0000BF80BD2B05002000000020940000206D
:10076C0028050020300500202C050020380500202D
:10077C00CDCCCCCC00100140360500200800002068
:10078C00383C000880B582B000AF104802F0BAFBCC
:10079C000F4B1B687B607B68B3F1FF3F03D10D48A7
:1007AC0002F0B0FBFEE70C4B1B683B603B6883F32D
:1007BC00088800BF00224FF40051084800F09CFF4D
:1007CC007B68984700BF0837BD4680BD4C3C00088D
:1007DC00044400085C3C0008004400080010014080
:1007EC0080B400AF72B600BFFEE7000080B485B0E5
:1007FC0000AF154B9B69144A43F001039361124BF4
:10080C009B6903F00103BB60BB680F4BDB690E4AAD
:10081C0043F08053D3610C4BDB6903F080537B6056
:10082C007B680A4B5B68FB60FB6823F0E063FB6052
:10083C00FB6843F00073FB60044AFB68536000BF25
:10084C001437BD4680BC70470010024000000140C8
:10085C0080B58AB000AF786007F1180300221A60E7
:10086C005A609A60DA607B681B683B4A93423AD1C3
:10087C003A4B9B69394A43F480439361374B9B69EC
:10088C0003F480437B617B69344B9B69334A43F0AF
:10089C0004039361314B9B6903F004033B613B6997
:1008AC004FF40073BB610223FB6103237B6207F1EE
:1008BC00180319462A4800F09BFD4FF48063BB6176
:1008CC000023FB6100233B6207F1180319462448FF
:1008DC0000F08EFD00220021252000F0A0FA25203A
:1008EC0000F0B9FA34E07B681B681E4A93422FD1A2
:1008FC001A4BDB69194A43F40033D361174BDB699C
:10090C0003F40033FB60FB68144B9B69134A43F000
:10091C0004039361114B9B6903F00403BB60BB6838
:10092C000423BB610223FB6103237B6207F11803E1
:10093C0019460B4800F05CFD0823BB610023FB61EA
:10094C0000233B6207F118031946054800F050FDDF
:10095C0000BF2837BD4680BD003801400010024062
:10096C00000801400044004080B400AFFEE780B4B2
:10097C0000AFFEE780B400AFFEE780B400AFFEE747
:10098C0080B400AFFEE780B400AF00BFBD4680BCB2
:10099C00704780B400AF00BFBD4680BC704780B4C8
:1009AC0000AF00BFBD4680BC704780B500AF00F003
:1009BC001FF900BF80BD000080B500AF024801F0F8
:1009CC000BFC00BF80BD00BF9400002080B586B03A
:1009DC0000AFF860B9607A6000237B610AE0AFF386
:1009EC0000800146BB685A1CBA60CAB21A707B6997
:1009FC0001337B617A697B689A42F0DB7B6818462D
:100A0C001837BD4680BD80B586B000AFF860B960C0
:100A1C007A6000237B6109E0BB685A1CBA601B78C2
:100A2C001846FFF7A1FC7B6901337B617A697B680F
:100A3C009A42F1DB7B6818461837BD4680BD80B4FE
:100A4C0083B000AF78604FF0FF3318460C37BD46CB
:100A5C0080BC704780B483B000AF786039603B686D
:100A6C004FF400525A60002318460C37BD4680BC28
:100A7C00704780B483B000AF7860012318460C3700
:100A8C00BD4680BC704780B485B000AFF860B960DB
:100A9C007A60002318461437BD4680BC70470000AE
:100AAC0080B586B000AF7860144A154BD31A7B61C1
:100ABC007B693B61134B1B68002B02D1114B124A13
:100ACC001A60104B1A687B6813443A699A4207D231
:100ADC0002F046FB03460C221A604FF0FF3309E08C
:100AEC00084B1B68FB60074B1A687B681344054A6C
:100AFC001360FB6818461837BD4680BD00500020B7
:100B0C00000400003C050020B806002080B400AFB3
:100B1C0000BFBD4680BC7047FFF7F8FF0B480C497F
:100B2C000C4A002302E0D458C4500433C4188C423D
:100B3C00F9D3094A094C002301E013600432A242A4
:100B4C00FBD302F013FBFFF7FBFA70470000002009
:100B5C0078000020E43C000878000020B406002057
:100B6C00FEE7000080B500AF084B1B68074A43F056
:100B7C0010031360032000F047F90F2000F008F871
:100B8C00FFF734FE0023184680BD00BF0020024052
:100B9C0080B582B000AF7860124B1A68124B1B788C
:100BAC0019464FF47A73B3FBF1F3B2FBF3F3184627
:100BBC0000F05FF90346002B01D001230EE07B68A7
:100BCC000F2B0AD8002279684FF0FF3000F027F97C
:100BDC00064A7B681360002300E00123184608379F
:100BEC00BD4680BD1000002018000020140000201D
:100BFC0080B400AF054B1B781A46054B1B68134499
:100C0C00034A136000BFBD4680BC7047180000202B
:100C1C004005002080B400AF024B1B681846BD464F
:100C2C0080BC70474005002080B584B000AF786070
:100C3C00FFF7F0FFB8607B68FB60FB68B3F1FF3F28
:100C4C0005D00A4B1B781A46FB681344FB6000BFA7
:100C5C00FFF7E0FF0246BB68D31AFA689A42F7D84E
:100C6C0000BF00BF1037BD4680BD00BF180000207C
:100C7C0080B485B000AF78607B6803F00703FB603D
:100C8C000C4BDB68BB60BA684FF6FF031340BB60CC
:100C9C00FB681A02BB68134343F0BF6343F4003391
:100CAC00BB60044ABB68D36000BF1437BD4680BC30
:100CBC00704700BF00ED00E080B400AF044BDB6870
:100CCC001B0A03F007031846BD4680BC704700BFE3
:100CDC0000ED00E080B483B000AF0346FB7197F9E0
:100CEC000730002B0BDBFB7903F01F02064997F949
:100CFC0007305B09012000FA02F241F8232000BF03
:100D0C000C37BD4680BC704700E100E080B483B076
:100D1C0000AF03463960FB7197F90730002B0ADBF3
:100D2C003B68DAB20C4997F907301201D2B20B4486
:100D3C0083F800230AE03B68DAB20849FB7903F038
:100D4C000F03043B1201D2B20B441A7600BF0C37CE
:100D5C00BD4680BC704700BF00E100E000ED00E044
:100D6C0080B489B000AFF860B9607A60FB6803F0BA
:100D7C000703FB61FB69C3F10703042B28BF0423A2
:100D8C00BB61FB690433062B02D9FB69033B00E012
:100D9C0000237B614FF0FF32BB6902FA03F3DA43A5
:100DAC00BB681A407B699A404FF0FF317B6901FAAE
:100DBC0003F3D9437B680B40134318462437BD46D5
:100DCC0080BC704780B582B000AF78607B68013B17
:100DDC00B3F1807F01D301230FE00A4A7B68013B0A
:100DEC0053600F214FF0FF30FFF790FF054B0022AF
:100DFC009A60044B07221A60002318460837BD4638
:100E0C0080BD00BF10E000E080B582B000AF78601C
:100E1C007868FFF72DFF00BF0837BD4680BD80B551
:100E2C0086B000AF0346B9607A60FB7300237B6128
:100E3C00FFF742FF78617A68B9687869FFF790FF2D
:100E4C00024697F90F3011461846FFF75FFF00BFB7
:100E5C001837BD4680BD80B582B000AF0346FB712C
:100E6C0097F907301846FFF735FF00BF0837BD4626
:100E7C0080BD80B582B000AF78607868FFF7A2FFC4
:100E8C00034618460837BD4680BD80B485B000AF18
:100E9C0078600023FB737B6893F82130DBB2022B64
:100EAC0008D07B6804229A637B68002283F8202098
:100EBC00012320E07B681B681A687B681B6822F0A2
:100ECC000E021A607B681B681A687B681B6822F02C
:100EDC0001021A607B681A6C7B68DB6B012101FADA
:100EEC0002F25A607B68012283F821207B68002281
:100EFC0083F82020FB7B18461437BD4680BC704716
:100F0C0080B584B000AF78600023FB737B6893F8E6
:100F1C002130DBB2022B05D07B6804229A630123BB
:100F2C00FB7351E07B681B681A687B681B6822F0B6
:100F3C000E021A607B681B681A687B681B6822F0BB
:100F4C0001021A607B681B68224A934229D07B6895
:100F5C001B68214A934222D07B681B681F4A93422C
:100F6C001AD07B681B681E4A934212D07B681B68A0
:100F7C001C4A93420AD07B681B681B4A934202D1DD
:100F8C004FF480130EE04FF080730BE04FF480337E
:100F9C0008E04FF4805305E04FF4807302E0102317
:100FAC0000E00123114A53607B68012283F8212061
:100FBC007B68002283F820207B685B6B002B03D0BE
:100FCC007B685B6B78689847FB7B18461037BD468F
:100FDC0080BD00BF080002401C00024030000240EF
:100FEC0044000240580002406C00024000000240E5
:100FFC00F0B587B000AFF860B960C7E900230123F2
:10100C00FB750023BB7500237B752F4B1B7E012BBF
:10101C0001D1022354E02C4B01221A764CF25030B1
:10102C0000F0A8F80346FB75FB7D002B44D1FB6850
:10103C00012B02D101237B7507E0FB68022B02D147
:10104C0002237B7501E004237B750023BB752DE027
:10105C00BB7D5A00BB6802EB030CBB7D1901D7E9C1
:10106C000023C1F12006A1F1200022FA01F403FAB9
:10107C0006F6344323FA00F0044323FA01F5A3B235
:10108C001946604600F05AF84CF2503000F072F8F5
:10109C000346FB750D4B1B690C4A23F001031361CE
:1010AC00FB7D002B07D1BB7D0133BB75BA7D7B7DEE
:1010BC009A42CDD300E000BF034B00221A76FB7D91
:1010CC0018461C37BD46F0BD4805002000200240E4
:1010DC0080B483B000AF0023FB710D4B1B6903F090
:1010EC008003002B0DD00A4B0A4A5A60084B0A4A5F
:1010FC005A60074B1B6903F08003002B01D00123BE
:10110C00FB71FB7918460C37BD4680BC704700BF9D
:10111C000020024023016745AB89EFCD80B400AFBE
:10112C00054B1B69044A43F08003136100231846E6
:10113C00BD4680BC704700BF0020024080B483B025
:10114C0000AF78600B467B80084B0022DA61084BBD
:10115C001B69074A43F0010313617B687A881A8084
:10116C0000BF0C37BD4680BC704700BF480500204F
:10117C000020024080B584B000AF7860FFF74AFDD4
:10118C00F86010E07B68B3F1FF3F0CD07B68002B5C
:10119C0007D0FFF73FFD0246FB68D31A7A689A42E4
:1011AC0001D2032325E0154BDB6803F00103002B70
:1011BC00E8D1124BDB6803F02003002B02D00F4B5D
:1011CC002022DA600D4BDB6803F01003002B0BD1EF
:1011DC000A4BDB6903F00103002B05D1074BDB68DD
:1011EC0003F00403002B03D000F00AF8012300E005
:1011FC00002318461037BD4680BD00BF00200240BA
:10120C0080B483B000AF00237B60234BDB6803F01A
:10121C001003002B09D0214BDB6943F002031F4A5A
:10122C00D3617B6843F010037B601B4BDB6803F0DE
:10123C000403002B09D0194BDB6943F00103174A57
:10124C00D3617B6843F004037B60134BDB6903F0D1
:10125C000103002B0BD0114BDB6943F004030F4A45
:10126C00D3610D4BDB690C4A23F00103D3617B681E
:10127C0040F20112934206D1074BDB69064A23F078
:10128C000103D36102E0044A7B68D36000BF0C37D2
:10129C00BD4680BC704700BF0020024048050020BE
:1012AC0080B584B000AF786039600123FB730023F4
:1012BC00BB602F4B1B7E012B01D1022353E02C4B27
:1012CC0001221A767B681B68022B16D14CF2503027
:1012DC00FFF750FF0346002B41D1012000F04CF8E2
:1012EC004CF25030FFF746FF0346FB73214B1B6952
:1012FC00204A23F00403136131E04CF25030FFF725
:10130C0039FF0346002B2AD13B684FF0FF321A609D
:10131C007B689B68BB6019E0B86800F049F84CF238
:10132C005030FFF727FF0346FB73124B1B69114A22
:10133C0023F002031361FB7B002B03D03B68BA68DC
:10134C001A600CE0BB6803F58063BB607B68DB68EC
:10135C009A027B689B681344BA689A42DCD3044BAC
:10136C0000221A76FB7B18461037BD4680BD00BFA5
:10137C00480500200020024080B483B000AF7860A4
:10138C00094B0022DA61094B1B69084A43F004033C
:10139C001361064B1B69054A43F04003136100BF00
:1013AC000C37BD4680BC7047480500200020024029
:1013BC0080B483B000AF78600B4B0022DA610B4B2A
:1013CC001B690A4A43F002031361084A7B685361A4
:1013DC00064B1B69054A43F04003136100BF0C37F1
:1013EC00BD4680BC704700BF48050020002002406D
:1013FC0080B48BB000AF7860396000237B6200232F
:10140C003B6269E101227B6A02FA03F3FB613B68F0
:10141C001B68FA691340BB61BA69FB699A4240F0D8
:10142C0058813B685B689A4A93425ED0984A9342D3
:10143C0075D8984A934258D0964A93426FD8964A98
:10144C00934252D0944A934269D8944A93424CD0D6
:10145C00924A934263D8924A934246D0904A93421E
:10146C005DD8122B2AD8122B59D801A252F823F08E
:10147C00F7140008D1140008E3140008251500081F
:10148C002B1500082B1500082B1500082B15000830
:10149C002B1500082B1500082B1500082B15000820
:1014AC002B1500082B1500082B1500082B15000810
:1014BC002B150008D9140008ED140008794A934242
:1014CC0013D02CE03B68DB683B6229E03B68DB68AF
:1014DC0004333B6224E03B68DB6808333B621FE06B
:1014EC003B68DB680C333B621AE03B689B68002B63
:1014FC0002D104233B6213E03B689B68012B05D1AE
:10150C0008233B627B68FA691A6109E008233B6295
:10151C007B68FA695A6103E000233B6200E000BF7C
:10152C00BB69FF2B01D87B6801E07B6804337B61CE
:10153C00BB69FF2B02D87B6A9B0002E07B6A083BED
:10154C009B003B617B691A680F213B6901FA03F32D
:10155C00DB431A40396A3B6901FA03F31A437B698E
:10156C001A603B685B6803F08053002B00F0B1807D
:10157C004D4B9B694C4A43F0010393614A4B9B6969
:10158C0003F00103BB60BB68484A7B6A9B080233CB
:10159C0052F82330FB607B6A03F003039B000F229D
:1015AC0002FA03F3DB43FA681340FB607B68404AA2
:1015BC00934213D07B683F4A93420DD07B683E4ADE
:1015CC00934207D07B683D4A934201D1032306E046
:1015DC00042304E0022302E0012300E000237A6AE2
:1015EC0002F0030292009340FA681343FB602F4908
:1015FC007B6A9B080233FA6841F823203B685B68DE
:10160C0003F48013002B06D02D4B9A682C49BB6930
:10161C0013438B6006E02A4B9A68BB69DB4328496D
:10162C0013408B603B685B6803F40013002B06D0FF
:10163C00234BDA682249BB691343CB6006E0204B8D
:10164C00DA68BB69DB431E491340CB603B685B68BF
:10165C0003F40033002B06D0194B5A681849BB69A8
:10166C0013434B6006E0164B5A68BB69DB431449C5
:10167C0013404B603B685B6803F48033002B21D034
:10168C000F4B1A680E49BB6913430B6021E000BF76
:10169C000000321000003110000022100000211058
:1016AC000000121000001110001002400000014058
:1016BC0000080140000C01400010014000140140E2
:1016CC00000401400B4B1A68BB69DB43094913400A
:1016DC000B607B6A01337B623B681A687B6A22FA77
:1016EC0003F3002B7FF48EAE00BF00BF2C37BD463A
:1016FC0080BC70470004014080B483B000AF7860B8
:10170C000B467B8013467B707B78002B03D07A884A
:10171C007B681A6103E07B881A047B681A6100BF3E
:10172C000C37BD4680BC704780B485B000AF786084
:10173C000B467B807B68DB68FB607A88FB68134018
:10174C001A04FB68D9437B880B401A437B681A61E7
:10175C0000BF1437BD4680BC7047000080B586B012
:10176C0000AF78607B68002B01D1012372E27B68AB
:10177C001B6803F00103002B00F08780924B5B6821
:10178C0003F00C03042B0CD08F4B5B6803F00C03A1
:10179C00082B12D18C4B5B6803F48033B3F5803F7C
:1017AC000BD1894B1B6803F40033002B6CD07B6886
:1017BC005B68002B68D101234CE27B685B68B3F556
:1017CC00803F06D1804B1B687F4A43F48033136003
:1017DC002EE07B685B68002B0CD17B4B1B687A4A34
:1017EC0023F480331360784B1B68774A23F48023EF
:1017FC0013601DE07B685B68B3F5A02F0CD1724BB6
:10180C001B68714A43F4802313606F4B1B686E4A4C
:10181C0043F4803313600BE06B4B1B686A4A23F470
:10182C0080331360684B1B68674A23F48023136072
:10183C007B685B68002B13D0FFF7ECF9386108E08C
:10184C00FFF7E8F902463B69D31A642B01D903234D
:10185C0000E25D4B1B6803F40033002BF0D014E066
:10186C00FFF7D8F9386108E0FFF7D4F902463B6975
:10187C00D31A642B01D90323ECE1534B1B6803F4FB
:10188C000033002BF0D100E000BF7B681B6803F035
:10189C000203002B63D04C4B5B6803F00C03002B52
:1018AC000BD0494B5B6803F00C03082B1CD1464B47
:1018BC005B6803F48033002B16D1434B1B6803F099
:1018CC000203002B05D07B681B69012B01D001237F
:1018DC00C0E13D4B1B6823F0F8027B685B69DB00C1
:1018EC00394913430B603AE07B681B69002B20D00D
:1018FC00364B01221A60FFF78DF9386108E0FFF7CB
:10190C0089F902463B69D31A022B01D90323A1E1C1
:10191C002D4B1B6803F00203002BF0D02A4B1B68E5
:10192C0023F0F8027B685B69DB00274913430B60EB
:10193C0015E0264B00221A60FFF76CF9386108E0BD
:10194C00FFF768F902463B69D31A022B01D903232E
:10195C0080E11D4B1B6803F00203002BF0D17B6868
:10196C001B6803F00803002B3AD07B689B69002BA3
:10197C0019D0174B01221A60FFF74CF9386108E0B7
:10198C00FFF748F902463B69D31A022B01D903230E
:10199C0060E10D4B5B6A03F00203002BF0D00120D9
:1019AC0000F0CEFA1CE00A4B00221A60FFF732F965
:1019BC0038610FE0FFF72EF902463B69D31A022B70
:1019CC0008D9032346E100BF001002400000424248
:1019DC0080044242924B5B6A03F00203002BE9D174
:1019EC007B681B6803F00403002B00F0A680002327
:1019FC00FB758B4BDB6903F08053002B0DD1884BAF
:101A0C00DB69874A43F08053D361854BDB6903F074
:101A1C008053BB60BB680123FB75824B1B6803F4CE
:101A2C008073002B18D17F4B1B687E4A43F4807364
:101A3C001360FFF7EFF8386108E0FFF7EBF80246A8
:101A4C003B69D31A642B01D9032303E1754B1B6843
:101A5C0003F48073002BF0D07B68DB68012B06D17C
:101A6C006F4B1B6A6E4A43F0010313622DE07B68D7
:101A7C00DB68002B0CD16A4B1B6A694A23F001030B
:101A8C001362674B1B6A664A23F0040313621CE063
:101A9C007B68DB68052B0CD1614B1B6A604A43F0F9
:101AAC00040313625E4B1B6A5D4A43F0010313622D
:101ABC000BE05B4B1B6A5A4A23F001031362584B31
:101ACC001B6A574A23F0040313627B68DB68002B04
:101ADC0015D0FFF79FF838610AE0FFF79BF8024634
:101AEC003B69D31A41F28832934201D90323B1E006
:101AFC004B4B1B6A03F00203002BEED014E0FFF7F4
:101B0C0089F838610AE0FFF785F802463B69D31A79
:101B1C0041F28832934201D903239BE0404B1B6A6C
:101B2C0003F00203002BEED1FB7D012B05D13C4BC6
:101B3C00DB693B4A23F08053D3617B68DB69002B64
:101B4C0000F08780364B5B6803F00C03082B61D0E8
:101B5C007B68DB69022B46D1334B00221A60FFF7FE
:101B6C0059F8386108E0FFF755F802463B69D31A7B
:101B7C00022B01D903236DE0294B1B6803F0007382
:101B8C00002BF0D17B681B6AB3F5803F08D1244B46
:101B9C005B6823F400327B689B68214913434B60DC
:101BAC001F4B5B6823F474127B68196A7B685B6A51
:101BBC000B431B4913434B601B4B01221A60FFF76D
:101BCC0029F8386108E0FFF725F802463B69D31A7B
:101BDC00022B01D903233DE0114B1B6803F000736A
:101BEC00002BF0D035E0104B00221A60FFF712F8F2
:101BFC00386108E0FFF70EF802463B69D31A022B56
:101C0C0001D9032326E0064B1B6803F00073002B5D
:101C1C00F0D11EE07B68DB69012B07D1012319E0B1
:101C2C000010024000700040600042420B4B5B68A9
:101C3C00FB60FB6803F480327B681B6A9A4206D116
:101C4C00FB6803F470127B685B6A9A4201D0012333
:101C5C0000E0002318461837BD4680BD0010024036
:101C6C0080B584B000AF786039607B68002B01D1FF
:101C7C000123D0E06A4B1B6803F007033A689A42D1
:101C8C0010D9674B1B6823F0070265493B68134367
:101C9C000B60634B1B6803F007033A689A4201D050
:101CAC000123B8E07B681B6803F00203002B20D0F3
:101CBC007B681B6803F00403002B05D0594B5B6851
:101CCC00584A43F4E06353607B681B6803F00803D5
:101CDC00002B05D0534B5B68524A43F4605353605E
:101CEC00504B5B6823F0F0027B689B684D491343B3
:101CFC004B607B681B6803F00103002B40D07B68B2
:101D0C005B68012B07D1474B1B6803F40033002B96
:101D1C0015D101237FE07B685B68022B07D1414B17
:101D2C001B6803F00073002B09D1012373E03D4BBA
:101D3C001B6803F00203002B01D101236BE0394B2C
:101D4C005B6823F003027B685B68364913434B6086
:101D5C00FEF760FFF8600AE0FEF75CFF0246FB68E6
:101D6C00D31A41F28832934201D9032353E02D4B0D
:101D7C005B6803F00C027B685B689B009A42EBD1BA
:101D8C00274B1B6803F007033A689A4210D2244B86
:101D9C001B6823F0070222493B6813430B60204B5E
:101DAC001B6803F007033A689A4201D0012332E022
:101DBC007B681B6803F00403002B08D0194B5B688D
:101DCC0023F4E0627B68DB68164913434B607B6845
:101DDC001B6803F00803002B09D0124B5B6823F43B
:101DEC0060527B681B69DB000E4913434B6000F0AB
:101DFC0021F802460B4B5B681B0903F00F030A49E1
:101E0C00CB5C22FA03F3094A1360094B1B68184692
:101E1C00FEF7BEFE002318461037BD4680BD00BF3E
:101E2C0000200240001002407C3C00081000002002
:101E3C001400002080B487B000AF0023FB600023A7
:101E4C00BB6000237B6100237B6000233B611E4B46
:101E5C005B68FB60FB6803F00C03042B02D0082BBF
:101E6C0003D027E0194B3B6127E0FB689B0C03F088
:101E7C000F03174AD35C7B60FB6803F48033002BA1
:101E8C0010D0114B5B685B0C03F00103114AD35C5F
:101E9C00BB607B680D4A03FB02F2BB68B2FBF3F339
:101EAC007B6104E07B680C4A02FB03F37B617B697A
:101EBC003B6102E0054B3B6100BF3B6918461C3798
:101ECC00BD4680BC704700BF0010024000127A0073
:101EDC00943C0008A43C000800093D0080B400AF0D
:101EEC00024B1B681846BD4680BC70471000002092
:101EFC0080B500AFFFF7F2FF0246054B5B681B0A8B
:101F0C0003F007030349CB5C22FA03F3184680BDA8
:101F1C00001002408C3C000880B500AFFFF7DEFFDC
:101F2C000246054B5B68DB0A03F007030349CB5CF5
:101F3C0022FA03F3184680BD001002408C3C0008C6
:101F4C0080B485B000AF78600A4B1B680A4AA2FBCC
:101F5C0003235B0A7A6802FB03F3FB6000BFFB6898
:101F6C005A1EFA60002BF9D100BF00BF1437BD46D2
:101F7C0080BC704710000020D34D621080B582B039
:101F8C0000AF78607B68002B01D1012342E07B68B5
:101F9C0093F84130DBB2002B06D17B68002283F82A
:101FAC0040207868FEF754FC7B68242283F841209B
:101FBC007B681B68DA687B681B6822F40052DA6065
:101FCC00786800F0FBFD7B681B681A697B681B68EE
:101FDC0022F490421A617B681B685A697B681B6803
:101FEC0022F02A025A617B681B68DA687B681B68DE
:101FFC0042F40052DA607B6800225A647B6820222B
:10200C0083F841207B68202283F842207B680022E1
:10201C005A63002318460837BD4680BD80B58AB088
:10202C0002AFF860B9603B601346FB8000237B6114
:10203C00FB6893F84130DBB2202B6DD1BB68002BD1
:10204C0002D0FB88002B01D1012366E0FB68002243
:10205C005A64FB68212283F84120FEF7DBFD78618E
:10206C00FB68FA889A84FB68FA88DA84FB689B68B8
:10207C00B3F5805F08D1FB681B69002B04D10023EA
:10208C00FB61BB68BB6103E0BB68FB610023BB6108
:10209C002AE03B6800937B6900228021F86800F0FD
:1020AC004AFB0346002B01D0032336E0FB69002BCF
:1020BC000BD1BB691B881A46FB681B68C2F308026C
:1020CC005A60BB690233BB6107E0FB691A78FB6895
:1020DC001B685A60FB690133FB61FB68DB8C9BB2AC
:1020EC00013B9AB2FB68DA84FB68DB8C9BB2002B59
:1020FC00CFD13B6800937B6900224021F86800F047
:10210C001AFB0346002B01D0032306E0FB682022B8
:10211C0083F84120002300E0022318462037BD46F7
:10212C0080BD80B485B000AFF860B9601346FB8009
:10213C00FB6893F84130DBB2202B21D1BB68002B1C
:10214C0002D0FB88002B01D101231AE0FB68BA688E
:10215C001A62FB68FA889A84FB68FA88DA84FB684E
:10216C0000225A64FB68212283F84120FB681B681B
:10217C00DA68FB681B6842F08002DA60002300E03A
:10218C00022318461437BD4680BC704780B584B016
:10219C0000AFF860B9601346FB80FB6893F84230DF
:1021AC00DBB2202B12D1BB68002B02D0FB88002B9A
:1021BC0001D101230BE0FB6800221A63FB881A464D
:1021CC00B968F86800F025FB034600E002231846C6
:1021DC001037BD4680BD000080B5BAB000AF786046
:1021EC007B681B681B68C7F8E4307B681B68DB687E
:1021FC00C7F8E0307B681B685B69C7F8DC300023EC
:10220C00C7F8D8300023C7F8D430D7F8E43003F03F
:10221C000F03C7F8D830D7F8D830002B0FD1D7F828
:10222C00E43003F02003002B09D0D7F8E03003F0A2
:10223C002003002B03D0786800F001FC5BE2D7F898
:10224C00D830002B00F0DE80D7F8DC3003F001032F
:10225C00002B06D1D7F8E03003F49073002B00F07C
:10226C00D180D7F8E43003F00103002B0BD0D7F862
:10227C00E03003F48073002B05D07B685B6C43F07B
:10228C0001027B685A64D7F8E43003F00403002B96
:10229C000BD0D7F8DC3003F00103002B05D07B68A2
:1022AC005B6C43F002027B685A64D7F8E43003F0AD
:1022BC000203002B0BD0D7F8DC3003F00103002B0A
:1022CC0005D07B685B6C43F004027B685A64D7F8DA
:1022DC00E43003F00803002B11D0D7F8E03003F002
:1022EC002003002B05D1D7F8DC3003F00103002BC1
:1022FC0005D07B685B6C43F008027B685A647B6892
:10230C005B6C002B00F0F281D7F8E43003F0200373
:10231C00002B08D0D7F8E03003F02003002B02D0BC
:10232C00786800F08CFB7B681B685B6903F04003EA
:10233C00002B14BF01230023DBB2C7F8D4307B6819
:10234C005B6C03F00803002B03D1D7F8D430002BBF
:10235C004FD0786800F096FA7B681B685B6903F0D5
:10236C004003002B41D07B681B681433C7F89C30AA
:10237C00D7F89C3053E8003FC7F89830D7F898301E
:10238C0023F04003C7F8D0307B681B681433D7F8B0
:10239C00D020C7F8A820C7F8A430D7F8A410D7F8D5
:1023AC00A82041E80023C7F8A030D7F8A030002BB4
:1023BC00D9D17B68DB6B002B13D07B68DB6B7E4A3F
:1023CC005A637B68DB6B1846FEF79AFD0346002BBD
:1023DC0016D07B68DB6B5B6B7A68D26B10469847C8
:1023EC000EE0786800F093F90AE0786800F08FF955
:1023FC0006E0786800F08BF97B6800225A6475E17E
:10240C0000BF73E17B681B6B012B40F04F81D7F849
:10241C00E43003F01003002B00F04881D7F8E030D3
:10242C0003F01003002B00F041810023BB607B689C
:10243C001B681B68BB607B681B685B68BB60BB6808
:10244C007B681B685B6903F04003002B00F0B680CF
:10245C007B68DB6B1B685B68A7F8BE30B7F8BE30D7
:10246C00002B00F045817B689B8DB7F8BE209A420B
:10247C0080F03E817B68B7F8BE20DA857B68DB6B29
:10248C009B69202B00F088807B681B680C33C7F895
:10249C008830D7F8883053E8003FC7F88430D7F835
:1024AC00843023F48073C7F8B8307B681B680C3316
:1024BC00D7F8B820C7F89420C7F89030D7F8901008
:1024CC00D7F8942041E80023C7F88C30D7F88C302B
:1024DC00002BD9D17B681B6814337B677B6F53E867
:1024EC00003F3B673B6F23F00103C7F8B4307B68B8
:1024FC001B681433D7F8B420C7F88020FB67F96F3A
:10250C00D7F8802041E80023BB67BB6F002BE1D1DB
:10251C007B681B6814333B663B6E53E8003FFB65DE
:10252C00FB6D23F04003C7F8B0307B681B68143395
:10253C00D7F8B020FA66BB66B96EFA6E41E8002394
:10254C007B667B6E002BE3D17B68202283F84220D4
:10255C007B6800221A637B681B680C33FB64FB6C82
:10256C0053E8003FBB64BB6C23F01003C7F8AC30DE
:10257C007B681B680C33D7F8AC20BA657B65796D2A
:10258C00BA6D41E800233B653B6D002BE3D17B68C2
:10259C00DB6B1846FEF779FC7B6802225A637B687A
:1025AC009A8D7B68DB8D9BB2D31A9BB219467868E7
:1025BC0000F0B6F89CE000BF552900087B689A8DA6
:1025CC007B68DB8D9BB2D31AA7F8CE307B68DB8D92
:1025DC009BB2002B00F08E80B7F8CE30002B00F0B1
:1025EC0089807B681B680C33BB63BB6B53E8003F73
:1025FC007B637B6B23F49073C7F8C8307B681B68D4
:10260C000C33D7F8C8207A643B64396C7A6C41E897
:10261C000023FB63FB6B002BE3D17B681B6814333B
:10262C007B627B6A53E8003F3B623B6A23F0010309
:10263C00C7F8C4307B681B681433D7F8C4203A63DE
:10264C00FB62F96A3A6B41E80023BB62BB6A002B60
:10265C00E3D17B68202283F842207B6800221A6336
:10266C007B681B680C333B613B6953E8003FFB60A4
:10267C00FB6823F01003C7F8C0307B681B680C3371
:10268C00D7F8C020FA61BB61B969FA6941E8002347
:10269C007B617B69002BE3D17B6802225A63B7F81C
:1026AC00CE301946786800F03BF823E0D7F8E430D8
:1026BC0003F08003002B09D0D7F8E03003F080033F
:1026CC00002B03D0786800F053F914E0D7F8E4300D
:1026DC0003F04003002B0ED0D7F8E03003F040039A
:1026EC00002B08D0786800F092F904E000BF02E0FB
:1026FC0000BF00E000BFE837BD4680BD80B483B0AA
:10270C0000AF786000BF0C37BD4680BC704780B40A
:10271C0083B000AF786000BF0C37BD4680BC7047FB
:10272C0080B483B000AF78600B467B8000BF0C3761
:10273C00BD4680BC704780B590B000AFF860B96002
:10274C003B601346FB7150E0BB6CB3F1FF3F4CD0C8
:10275C00BB6C002B07D0FEF75DFA02463B68D31A20
:10276C00BA6C9A4241D2FB681B680C33BB62BB6AE1
:10277C0053E8003F7B627B6A23F4D073FB63FB68F6
:10278C001B680C33FA6B7A633B63396B7A6B41E8E9
:10279C000023FB62FB6A002BE5D1FB681B6814333A
:1027AC007B617B6953E8003F3B613B6923F001038C
:1027BC00BB63FB681B681433BA6B3A62FB61F96943
:1027CC003A6A41E80023BB61BB69002BE5D1FB6889
:1027DC00202283F84120FB68202283F84220FB68EA
:1027EC00002283F8402003230FE0FB681B681A6863
:1027FC00BB681340BA689A420CBF01230023DBB2BA
:10280C001A46FB799A429FD0002318464037BD46A2
:10281C0080BD80B485B000AFF860B9601346FB8012
:10282C00FB68BA689A62FB68FA889A85FB68FA8832
:10283C00DA85FB6800225A64FB68222283F8422066
:10284C00FB681B69002B07D0FB681B68DA68FB6808
:10285C001B6842F48072DA60FB681B685A69FB687B
:10286C001B6842F001025A61FB681B68DA68FB685E
:10287C001B6842F02002DA60002318461437BD466C
:10288C0080BC704780B495B000AF78607B681B68E3
:10289C000C337B637B6B53E8003F3B633B6B23F454
:1028AC009073FB647B681B680C33FA6C3A64FB63B3
:1028BC00F96B3A6C41E80023BB63BB6B002BE5D191
:1028CC007B681B6814333B623B6A53E8003FFB6137
:1028DC00FB6923F00103BB647B681B681433BA6C7F
:1028EC00FA62BB62B96AFA6A41E800237B627B6ACE
:1028FC00002BE5D17B681B6B012B19D17B681B6806
:10290C000C33FB60FB6853E8003FBB60BB6823F0F3
:10291C0010037B647B681B680C337A6CBA617B6137
:10292C007969BA6941E800233B613B69002BE5D129
:10293C007B68202283F842207B6800221A6300BF48
:10294C005437BD4680BC704780B584B000AF78600A
:10295C007B685B6AFB60FB680022DA85FB680022FF
:10296C00DA84F868FFF7D3FE00BF1037BD4680BD90
:10297C0080B485B000AF78607B6893F84130DBB2EF
:10298C00212B3ED17B689B68B3F5805F14D17B68AB
:10299C001B69002B10D17B681B6AFB60FB681B88D2
:1029AC001A467B681B68C2F308025A607B681B6A74
:1029BC009A1C7B681A6208E07B681B6A591C7A684F
:1029CC0011621A787B681B685A607B68DB8C9BB23F
:1029DC00013B9BB27A681946D184002B0FD17B68DE
:1029EC001B68DA687B681B6822F08002DA607B68FF
:1029FC001B68DA687B681B6842F04002DA600023CF
:102A0C0000E0022318461437BD4680BC704780B5E1
:102A1C0082B000AF78607B681B68DA687B681B68E3
:102A2C0022F04002DA607B68202283F8412078682B
:102A3C00FFF764FE002318460837BD4680BD80B5FD
:102A4C008CB000AF78607B6893F84230DBB2222BFD
:102A5C0040F0AE807B689B68B3F5805F17D17B68D4
:102A6C001B69002B13D10023FB627B689B6ABB6242
:102A7C007B681B685B689BB2C3F308039AB2BB6AA2
:102A8C001A807B689B6A9A1C7B689A6226E07B683A
:102A9C009B6AFB620023BB627B689B68B3F5805F1B
:102AAC0007D07B689B68002B0AD17B681B69002BC5
:102ABC0006D17B681B685B68DAB2FB6A1A7008E0A7
:102ACC007B681B685B68DBB203F07F03DAB2FB6ADE
:102ADC001A707B689B6A5A1C7B689A627B68DB8DD8
:102AEC009BB2013B9BB27A681946D185002B5DD114
:102AFC007B681B68DA687B681B6822F02002DA604E
:102B0C007B681B68DA687B681B6822F48072DA6069
:102B1C007B681B685A697B681B6822F001025A614A
:102B2C007B68202283F842207B6800225A637B68F2
:102B3C001B6B012B35D17B6800221A637B681B68E9
:102B4C000C337B617B6953E8003F3B613B6923F0AD
:102B5C0010037B627B681B680C337A6A3A62FB61F8
:102B6C00F9693A6A41E80023BB61BB69002BE5D1E6
:102B7C007B681B681B6803F01003102B0AD1002321
:102B8C00FB607B681B681B68FB607B681B685B6871
:102B9C00FB60FB687B689B8D19467868FFF7C0FD6E
:102BAC0002E07868FDF778FC002302E0002300E0E7
:102BBC00022318463037BD4680BD000080B584B076
:102BCC0000AF78607B681B681B6923F440517B68FD
:102BDC00DA687B681B680A431A617B689A687B68B1
:102BEC001B691A437B685B691343BB607B681B687A
:102BFC00DB6823F4B05323F00C037A681268B968CD
:102C0C000B43D3607B681B685B6923F440717B6862
:102C1C009A697B681B680A435A617B681B682C4A5B
:102C2C00934203D1FFF778F9F86002E0FFF760F9FF
:102C3C00F860FA6813469B0013449A001A447B68A8
:102C4C005B689B00B2FBF3F3224AA2FB03235B09F4
:102C5C001901FA6813469B0013449A001A447B68C6
:102C6C005B689B00B2FBF3F21A4BA3FB02035B09FC
:102C7C00642000FB03F3D31A1B013233154AA2FB69
:102C8C0003235B0903F0F0031944FA6813469B0015
:102C9C0013449A001A447B685B689B00B2FBF3F206
:102CAC000C4BA3FB02035B09642000FB03F3D31A58
:102CBC001B013233074AA2FB03235B0903F00F020B
:102CCC007B681B680A449A6000BF1037BD4680BD04
:102CDC00003801401F85EB51002310B50446C0E9B4
:102CEC000033C0E90433836081814366C281836110
:102CFC00194608225C3000F0E5F9054B246263624A
:102D0C00044BA362044BE362044B236310BD00BF6E
:102D1C00212F0008432F00087B2F00089F2F00084D
:102D2C00024A0349034800F069B800BF1C000020A8
:102D3C005D3A00082800002041680C4B10B5994200
:102D4C00044601D000F084FEA168094B994202D0E0
:102D5C00204600F07DFEE168064B994204D02046E7
:102D6C00BDE8104000F074BE10BD00BF6805002027
:102D7C00D00500203806002010B50B4B0B4C0C4A2C
:102D8C0020461A6004210022FFF7A6FF04F1680018
:102D9C0001220921FFF7A0FF04F1D0000222BDE8B7
:102DAC0010401221FFF798BFA006002068050020F4
:102DBC002D2D0008014800F0FDB900BFA906002028
:102DCC00014800F0F8B900BFA906002010B5044670
:102DDC00FFF7F0FF236A1BB1BDE81040FFF7F0BF0F
:102DEC00044B2362044B1B68002BF5D1FFF7C4FF87
:102DFC00F2E700BF452D0008A00600202DE9F8439E
:102E0C000746884614460026D4E90195B9F1010914
:102E1C0005D52468002CF7D13046BDE8F883AB8982
:102E2C00012B07D9B5F90E30013303D029463846AA
:102E3C00C04706436835E9E70FB407B5064904AB4C
:102E4C00086853F8042B8168019300F0D1FA03B0A1
:102E5C005DF804EB04B0704774000020036A70B591
:102E6C0005460E4684680BB9FFF7B0FF636EDB07AF
:102E7C0005D4A389980502D4A06D00F09BF9A38911
:102E8C00190713D523698BB1013EA36816F8011FEE
:102E9C00013BA360E9B9002B2EDA22460A21284611
:102EAC0000F07BF8013007D00A2507E021462846C0
:102EBC0000F0B0F80028E7D04FF0FF35636EDA076A
:102ECC0005D4A3899B0502D4A06D00F074F92846A3
:102EDC0070BD002B04DAA2699A4206DC0A2904D0E0
:102EEC0023685A1C22601970CFE72246284600F04E
:102EFC0054F80130C9D1DFE70A2523685A1C226037
:102F0C001D70DBE7024B01461868FFF7A7BF00BF37
:102F1C007400002010B50C46B1F90E1000F0FCF84E
:102F2C000028ABBF636DA3891B1823F48053ACBF7F
:102F3C006365A38110BD2DE9F0411F468B890546C1
:102F4C00DB050C46164605D502230022B1F90E10FE
:102F5C0000F0D0F8A389324623F48053A38128468D
:102F6C003B46B4F90E10BDE8F04100F0E7B810B5DF
:102F7C000C46B1F90E1000F0BDF8431CA38915BF27
:102F8C00606523F4805343F48053A38118BFA3815D
:102F9C0010BDB1F90E1000F09DB8F8B50E461446F0
:102FAC00054618B1036A0BB9FFF710FFA369A360BC
:102FBC00A3891A0725D523691BB323682269F6B2A6
:102FCC00981A63693746834204DC2146284600F090
:102FDC003FFDE0B9A368013BA36023685A1C226043
:102FEC001E706269431C9A4204D0A389DB0706D584
:102FFC000A2E04D12146284600F02AFD38B938465D
:10300C00F8BD2146284600F005F80028D5D04FF031
:10301C00FF37F4E738B52A4B054618680C4618B14B
:10302C00036A0BB9FFF7D2FEA389B4F90C20180779
:10303C0022D4D90607D409232B6042F040034FF069
:10304C00FF30A38134E0580712D5616B41B104F114
:10305C004403994202D0284600F0AEF80023636383
:10306C00A38923F02403A3810023636023692360D5
:10307C00A38943F00803A38123694BB9A38903F403
:10308C002073B3F5007F03D02146284600F02DFDB8
:10309C00A089B4F90C2010F001030AD00023A3601E
:1030AC0063695B42A361236943B910F08000C4D10A
:1030BC0038BD810758BF6369A360F4E70020F7E7C8
:1030CC007400002003460244934200D1704703F879
:1030DC00011BF9E738B50023054D044608462B6063
:1030EC00FDF7ADFC431C02D12B6803B1236038BD46
:1030FC00A406002038B50446084611460022054DAA
:10310C002A601A46FDF7BFFC431C02D12B6803B1A1
:10311C00236038BDA406002038B504460846114685
:10312C000022054D2A601A46FDF750FC431C02D1C3
:10313C002B6803B1236038BDA406002038B50446C3
:10314C00084611460022054D2A601A46FDF75BFC25
:10315C00431C02D12B6803B1236038BDA4060020A8
:10316C00014B1868704700BF7400002070B5002632
:10317C000C4D0D4C641BA410A64209D100F032FD7D
:10318C0000260A4D0A4C641BA410A64205D170BD42
:10319C0055F8043B98470136EEE755F8043B984741
:1031AC000136F2E7DC3C0008DC3C0008DC3C0008A3
:1031BC00E03C00087047704738B50546002940D000
:1031CC0051F8043C0C1F002BB8BFE41800F0DCF8DD
:1031DC001C4A136833B9636014602846BDE8384054
:1031EC0000F0D8B8A34208D9206821188B4201BF3F
:1031FC0019685B6809182160EDE71A465B680BB12A
:10320C00A342FAD911685018A0420BD1206801448E
:10321C00501883421160E0D118685B680844106054
:10322C005360DAE702D90C232B60D6E7206821180B
:10323C008B4201BF19685B68091821606360546098
:10324C00CBE738BDAC06002070B50E4E0C4631688D
:10325C00054611B900F0A8FC30602146284600F064
:10326C00A3FC431C0AD0C41C24F00304A04207D0C6
:10327C00211A284600F098FC013001D14FF0FF34A0
:10328C00204670BDB00600202DE9F843CD1C25F07A
:10329C00030508350C2D38BF0C25002D074601DB26
:1032AC00A94205D90C2300263B603046BDE8F883C3
:1032BC00DFF8D08000F068F8D8F800301C465CBB12
:1032CC0029463846FFF7C0FF431C044655D1D8F8B1
:1032DC0000402646002E45D1002C48D023683146AC
:1032EC00384604EB030900F05FFC81453FD12168AF
:1032FC0038466D1A2946FFF7A7FF013037D02368EF
:10330C002B442360D8F80030002B38D05A68A242E6
:10331C002BD100225A600FE02268521B1FD40B2ABB
:10332C0017D96119A342256018BF5960636808BF9B
:10333C00C8F8001062514B60384604F10B0600F0DF
:10334C0029F826F00706231DF21AAED09B1BA350BA
:10335C00ABE7A3426268DDD1C8F80020ECE7234656
:10336C006468ACE734467668B4E71346CCE70C23C4
:10337C0038463B6000F00EF897E72560DCE75B60B1
:10338C00FFDE00BFAC0600200148FFF713BF00BFF3
:10339C00A80600200148FFF70EBF00BFA8060020BA
:1033AC00936810B4013B002B936007DA9469A34235
:1033BC0001DB0A2902D110BCFFF7EFBD1368581CC2
:1033CC0010601970084610BC7047F8B506460F46D9
:1033DC001446D518AC4201D1002007E03A463046DD
:1033EC0014F8011BFFF7DCFF431CF3D1F8BD000000
:1033FC002DE9F04F0D461446984606469DB018B17F
:10340C00036A0BB9FFF7E2FC6B6ED90705D4AB89E5
:10341C009A0502D4A86DFFF7CDFEAB891B0701D529
:10342C002B699BB929463046FFF7F4FD70B16B6EE2
:10343C00DC0704D54FF0FF301DB0BDE8F08FAB8931
:10344C009805F7D4A86DFFF7B6FEF3E700230993B0
:10345C0020238DF8293030234FF00109CDF80C8052
:10346C00DFF8AC818DF82A3023469A4613F8012BED
:10347C000AB1252AF9D1BAEB040B0BD05B462246D4
:10348C0029463046FFF7A1FF013000F0A980099AC8
:10349C005A4409929AF80030002B00F0A1800023C6
:1034AC004FF0FF32CDE905230AF1010A049307938B
:1034BC008DF853301A935446052214F8011B5448C6
:1034CC0000F082FB049AD8B9D10644BF20238DF8B2
:1034DC005330130744BF2B238DF853309AF8003028
:1034EC002A2B15D0544600204FF00A0C079A21467F
:1034FC0011F8013B303B092B4DD9B0B1079214E0C8
:10350C00A0EB080309FA03F31343A2460493D2E792
:10351C00039B191D1B680391002BBBBF5B4242F040
:10352C00020207930793B8BF049223782E2B0CD179
:10353C0063782A2B34D1039B02341A1D1B68039227
:10354C00002BB8BF4FF0FF330593DFF8C8A0032260
:10355C005046217800F038FB38B14022049BA0EB98
:10356C000A00824013430134049314F8011B062211
:10357C0029488DF8281000F027FB00283FD0274B56
:10358C001BBB039B073323F0070308330393099BEF
:10359C003B44099368E70C4601200CFB0232A6E77A
:1035AC0000234FF00A0C194601340593204610F8FD
:1035BC00012B303A092A03D9002BC6D00591C4E758
:1035CC00044601230CFB0121F0E703AB00932A46D0
:1035DC003046134B04A9AFF300800746781CD6D1B4
:1035EC006B6ED90705D4AB899A0502D4A86DFFF789
:1035FC00E2FDAB895B063FF51DAF09981CE703ABF9
:10360C0000932A463046064B04A900F07DF8E4E707
:10361C00A63C0008AC3C0008B03C000800000000D0
:10362C00D73300082DE9F047164699468A680B698E
:10363C0007469342B8BF1346336091F843200C46BB
:10364C00DDF820800AB1013333602368990642BF4C
:10365C00336802333360256815F0060506D104F192
:10366C00190AE36832689B1AAB422BDC94F84320AE
:10367C00131E226818BF0123920630D449463846DF
:10368C0004F14302C047013023D02368226903F0C0
:10369C000603042B14BF002533684FF0000608BF47
:1036AC00E56804F11A0408BFED1A54F8123C08BF7F
:1036BC0025EAE5759342C4BF9B1AED18B5421AD1A1
:1036CC00002008E00123524649463846C0470130E5
:1036DC0003D14FF0FF30BDE8F0870135C1E7302052
:1036EC00E11881F843005A1C94F845102244023327
:1036FC0082F84310C2E70123224649463846C047A8
:10370C000130E6D00136D9E72DE9FF470F7E91460F
:10371C00782F80460C469A460C9D01F1430207D83F
:10372C00622F0AD8002F00F0D580582F00F0C180EE
:10373C0004F1420584F842703AE0A7F16303152BBB
:10374C00F6D801A151F823F0AD370008C1370008B5
:10375C003D3700083D3700083D3700083D3700086D
:10376C00C13700083D3700083D3700083D370008D9
:10377C003D370008C7380008ED37000881380008CD
:10378C003D3700083D370008E93800083D37000890
:10379C00ED3700083D3700083D3700088938000830
:1037AC002B681A1D1B682A6004F1420584F842300C
:1037BC000123A0E020682B68070603F104012960AF
:1037CC0001D51E6803E04606FBD5B3F90060002E58
:1037DC0003DA2D23764284F843300A23594812E049
:1037EC002B682068191D2960050601D51E6802E0AA
:1037FC004106FBD51E886F2F0CBF08230A235148A6
:10380C00002184F843106568002DA8BF2168A560CD
:10381C00A4BF21F0040121600EB9002D4BD0154638
:10382C00B6FBF3F103FB1167C75D05F8017D374665
:10383C00BB420E46F4D9082B0BD12368DE0708D502
:10384C00236961689942DEBF302305F8013C05F11C
:10385C00FF35521B22614B4621464046CDF800A055
:10386C0003AAFFF7DFFE01304AD14FF0FF3004B05E
:10387C00BDE8F087236843F02003236078273248A3
:10388C0084F84570236829681F0651F8046B02D42C
:10389C005F0648BFB6B2DF0748BF43F0200329607C
:1038AC0048BF23601EB9236823F020032360102334
:1038BC00A6E72448E4E71546BDE72B682668181DE3
:1038CC006169286035061B6801D5196002E0700635
:1038DC00FBD51980002315462361BCE72B6800211A
:1038EC001A1D2A601D686268284600F06DF908B13F
:1038FC00401B606063682361002384F84330AAE7AF
:10390C002A46494640462369D0470130ADD023684A
:10391C009B0713D4E068039B9842B8BF1846A6E7F0
:10392C000123324649464046D04701309DD00135EF
:10393C00E36803995B1AAB42F2DCEBE7002504F178
:10394C001906F5E7B73C0008C83C00088A89F8B5A9
:10395C00054610070C4657D44B68002B04DC0B6C47
:10396C00002B01DC0020F8BDE66A002EFAD0002303
:10397C0012F480522F68216A2B6032D0606DA389BB
:10398C005A0705D56368C01A636B0BB1236CC01A58
:10399C0000230246E66A2846216AB047431CA389E5
:1039AC0006D129681D292BD8284A0A41D60727D4C5
:1039BC00002262602269D904226004D5421C01D124
:1039CC002B6803B96065616B2F600029CAD004F1C4
:1039DC004403994202D02846FFF7EEFB00206063B7
:1039EC00C1E701232846B047411CC8D12B68002BE6
:1039FC00C5D01D2B01D0162B01D12F60B2E7A389A6
:103A0C0043F04003A381AEE70F69002FAAD09307C0
:103A1C0018BF00230E6808BF4B69F61B0F608B6044
:103A2C00002E9FDD33463A462846216AD4F828C03A
:103A3C00E047002806DCA3894FF0FF3043F0400339
:103A4C00A38190E70744361AEAE700BFFEFFBFDF09
:103A5C0038B50B6905460C4613B90025284638BD08
:103A6C0018B1036A0BB9FFF7B1F9B4F90C30002B9C
:103A7C00F3D0626ED00704D4990502D4A06DFFF781
:103A8C0099FB28462146FFF761FF636E0546DA076E
:103A9C00E4D4A3899B05E1D4A06DFFF78CFBDDE793
:103AAC0070B50C46B1F90E10154600291E4696B09D
:103ABC000CDAA389002113F0800F0CBF4FF4806344
:103ACC004023002031602B6016B070BD6A4600F0B8
:103ADC0049F80028EDDB019901F47041A1F5005380
:103AEC00594259414FF48063EBE78B8973B59D07BD
:103AFC0006460C4607D504F14703236023610123D6
:103B0C00636102B070BD6A4601ABFFF7C9FF009953
:103B1C0005463046FFF7B8FB48B9B4F90C309A05A6
:103B2C00EFD423F0030343F00203A381E3E7A3895B
:103B3C00206043F08003A381009B20616361019BA3
:103B4C005BB13046B4F90E1000F01EF828B1A38911
:103B5C0023F0030343F00103A381A3891D43A58133
:103B6C00CFE7000038B50023064D04460846114641
:103B7C002B60FCF76FFF431C02D12B6803B1236051
:103B8C0038BD00BFA406002038B50023054D0446FF
:103B9C0008462B60FCF76DFF431C02D12B6803B168
:103BAC00236038BDA406002038B50023054D04461B
:103BBC0008462B60FCF774FF431C02D12B6803B141
:103BCC00236038BDA4060020034610B5C9B20244D8
:103BDC009342184601D1002003E0047801338C4253
:103BEC00F6D110BDF8B500BFF8BC08BC9E467047B6
:0C3BFC00F8B500BFF8BC08BC9E4670473E
:103C080050726F6772616D2053746172742E2E2E1C
:103C18000D0000000D5472616E7366657220256494
:103C2800200D0A0048414C542121210D00000000BC
:103C3800426F6F742046696E69736865642E2E2E14
:103C48000D0000004170706C69636174696F6E2EBD
:103C58002E2E0000496E76616C6964204170706C8C
:103C680069636174696F6E2E2E2E2048414C542171
:103C780021210D00000000000000000001020304E3
:103C880006070809000000000102030402030405F6
:103C9800060708090A0B0C0D0E0F10100102232D40
:103CA800302B2000686C4C0065666745464700303D
:103CB800313233343536373839414243444546008A
:103CC800303132333435363738396162636465668A
:043CD80000000000E8
:043CDC0031010008AA
:043CE0000D010008CA
:103CE4004F00000000040000000400000004000075
:103CF4000024F40010000000010000000000000097
:103D04000300000068050020000000006805002092
:103D1400D00500203806002000000000000000004C
:103D2400000000000000000000000000000000008F
:103D3400000000000000000000000000000000007F
:103D4400000000000000000000000000000000006F
:083D540000000000280000201F
:0400000508000B25BF
:00000001FF
